:020000040800F2
:10000000881B00203102000837420008BD3000087C
:100010003542000805090008114B000800000000E7
:1000200000000000000000000000000097440008ED
:10003000B909000800000000954400089944000830
:100040004B0200084B0200084B0200084B0200085C
:100050004B0200084B0200084B0200084B0200084C
:100060004B0200084B0200084B0200084B0200083C
:100070004B0200084B0200084B0200084B0200082C
:100080004B0200084B020008D10700084B02000891
:100090004B0200084B0200084B0200084B0200080C
:1000A0004B0200084B0200084B0200084B020008FC
:1000B0004B020008414500084B0200084B020008B3
:1000C0004B020008CD300008C13000084B02000888
:1000D0004B020008D14A00084B0200084B020008FE
:1000E0004B0200084B0200084B0200084B020008BC
:1000F0004B0200084B0200084B0200084B020008AC
:100100004B0200084B0200084B0200084B0200089B
:100110004B0200084B0200084B0200084B0200088B
:10012000090900084B0200084B0200084B020008B6
:100130004B0200084B0200084B0200084B0200086B
:100140004B0200084B0200084B0200084B0200085B
:100150004B0200084B0200084B0200084B0200084B
:100160004B0200084B0200084B0200084B0200083B
:100170004B0200084B0200084B0200080000000080
:100180004B0200084B02000800F002F800F041F8B2
:100190000AA090E8000C82448344AAF10107DA45E2
:1001A00001D100F036F8AFF2090EBAE80F0013F0F3
:1001B000010F18BFFB1A43F001031847D461000078
:1001C000F4610000103A24BF78C878C1FAD8520709
:1001D00024BF30C830C144BF04680C6070470000C1
:1001E0000023002400250026103A28BF78C1FBD840
:1001F000520728BF30C148BF0B607047642900F028
:10020000C580002070471FB505F030FA1FBD10B53E
:1002100010BD00F05CFA1146FFF7F5FF04F064FD35
:1002200000F07AFA03B4FFF7F2FF03BC00F082FAA1
:100230000948804709480047FEE7FEE7FEE7FEE77A
:10024000FEE7FEE7FEE7FEE7FEE7FEE704480549B6
:10025000054A064B70470000314500088901000837
:1002600088030020881B0020880B0020880B0020BA
:1002700053EA020C00F069802DE9F04B4FF00006C4
:10028000002B1FBFB3FA83F503FA05F424FA05F631
:100290005E4012BF1643B2FA82F502FA05F4C5F1C8
:1002A00020051EBF22FA05FC44EA0C04203556EA5C
:1002B000044C4FEA144418BF641C4FF000084FF080
:1002C0000009904271EB030C39D3002919BFB1FA30
:1002D00081F701FA07F6B0FA80F700FA07F6C7F1DE
:1002E00020071EBF20FA07FC46EA0C062037B6FBA3
:1002F000F4FCA7EB0507103F07F01F0BCBF120061E
:100300000CFA0BFB2CFA06F644BFB3460026202F4E
:10031000A4BF5E464FF0000B5BEA060C08BF4FF02F
:10032000010B19EB0B09ABFB027C48EB0608C01B69
:1003300006FB02CC0BFB03CC71EB0C01C1E70B46B7
:10034000024641464846BDE8F08B13B54FF0000029
:100350004FF00001AFF30080BDE81C407047000083
:100360000FB41CB5084B06AA7B446946009005985B
:1003700000F095F904460020694600F0A3F92046F4
:100380001CBC5DF814FB0000590300002DE9F0418E
:100390000646002410687529314616A510D0AFF323
:1003A0000080002802DA404213A507E031688A077E
:1003B00001D512A502E0490704D511A5012401E0E9
:1003C000AFF3008000210A2206F1240709E0B0FB08
:1003D000F2FCB0FBF2F302FB1C00303078541846FC
:1003E000491C0028F3D123462A463046BDE8F04197
:1003F00000F0F6B8000000002D0000002B00000007
:10040000200000002DE9F05F894604464FF0000A05
:10041000DFF874B1FB44C0F820A02046E1688847AB
:10042000002874D0252806D0D4E901219047206AFD
:10043000401C2062F1E700265F462046E1688847BD
:100440002028054607DB312D05D2781910F8200C3D
:1004500008B10643F1E7B00701D526F00406C4F859
:100460001CA00027C4F818A02A2D09D0284604F0A3
:1004700001FC38B304EB8708303DC8F8185019E088
:1004800059F8041B204604EB87029161E168884714
:10049000012F054618D1E069002820DA26F0200651
:1004A0001DE0D8F8180000EB800005EB4000303864
:1004B000C8F818002046E1688847054604F0DAFBD2
:1004C0000028EED1012F0AD02E2D08D12046E16858
:1004D00088477F1C0546022F46F02006C4DBA06932
:1004E000002803DA404246F00106A061F00701D07F
:1004F00026F010066C2D0BD0682D09D04C2D39D06C
:100500006A2D35D0742D35D07A2D33D016E038E0F1
:10051000E1682F4620468847B842054609D16C2F2E
:1005200026D04FF48060E1680643204688470546A0
:1005300004E06C2F1AD04FF4807006430DB3A5F180
:100540004100192802D8203546F400664A4629465B
:10055000204626604E46FFF751FE80B101280BD0A1
:10056000F61D26F0070000F1080956E74020E4E7F1
:100570008020D8E70020D6E706F104094DE7284699
:1005800052E7206ABDE8F09F645F00004FF0000270
:1005900000B5134694469646203922BFA0E80C5079
:1005A000A0E80C50B1F12001BFF4F7AF090728BF54
:1005B000A0E80C5048BF0CC05DF804EB890028BFD0
:1005C00040F8042B08BF704748BF20F8022B11F0F9
:1005D000804F18BF00F8012B704770477047704775
:1005E0002DE9F0470D4699469246044600F124084D
:1005F0000168880604D5E06921F01001216000E05F
:100600000120A84201DD471B00E00027A1697A19FB
:1006100002EB0900081AA0612078C00602D4204627
:10062000AFF30080002608E0D4E901211AF80600A3
:100630009047206A401C761C20624E45F4DB2078EF
:10064000C0060AD52046AFF3008006E0D4E90121B8
:1006500030209047206A401C2062381EA7F1010715
:10066000F4DC07E0D4E9012118F805009047206A7E
:10067000401C2062281EA5F10105F3DC2046AFF3E3
:1006800000802078000602D50220BDE8F087012016
:10069000FBE7000001694A1C02610878704700B559
:1006A0008FB0CDE901310021059105497944CDE9AB
:1006B000031011466846FFF7A5FE0FB000BD00000D
:1006C000E5FFFFFF0A6802F8010B0A6070477546F4
:1006D00000F02CF8AE4605006946534620F00700AE
:1006E000854618B020B5FFF7B1FDBDE820404FF0BA
:1006F00000064FF000074FF000084FF0000B21F00C
:100700000701AC46ACE8C009ACE8C009ACE8C009D8
:10071000ACE8C0098D46704710B50446AFF30080C1
:100720002046BDE81040FFF77DBD0000004870473F
:100730002803002001491820ABBEFEE72600020076
:10074000704710B50146806B026C12F0500F05D057
:10075000026CD20626D500F023FB10BD016C41F4DB
:100760000071016401688A6812F0405F17D1027E4F
:10077000AAB9CA6A12F4700F02D08A6852050ED460
:100780004A6822F020024A60016C21F48071016401
:10079000016CC90403D4016C41F00101016400F053
:1007A000FDFA10BD806BC26CBDE8104008461047D2
:1007B00010B5806B40210164416C41F0040141643B
:1007C00000F0EEFA10BD10B5806B00F0E8FA10BD35
:1007D000014800F0E6BA0000B8000020464910B514
:1007E0004A6822F440324A604A6843681A434A60C1
:1007F00001684A6822F480724A6001684A680369A5
:1008000042EA03224A6001684A6822F040724A6064
:1008100001684A6883681A434A6001688A6822F45A
:1008200000628A6001688A68C3681A438A60816AC4
:100830006FF07062D14201688A6822F070628A604B
:1008400001688A680CD0836A1A438A6001688A68E2
:1008500022F040528A6001688A68C36A1A4301E044
:1008600022F040528A6001688A6822F002028A609F
:1008700001688A68037E42EA43028A6090F8201089
:10088000002901684A680FD042F400624A6001689A
:100890004A6822F460424A6001684A68174C436A19
:1008A00004EB43331A4301E022F400624A6001681A
:1008B000CA6A22F47002CA620168CA6A838B104C49
:1008C00004EB03531A43CA6201688A6822F4007277
:1008D0008A6001688A6890F8303042EA43228A6070
:1008E00001688A6822F480628A6001688A684069C7
:1008F00042EA8020886010BD0023014000E0FFFF35
:100900000000F0FFFEE70000014800F069BC0000B5
:100910000001002001681823CAB2103AB2FBF3F2BA
:10092000054B6FF30901032A9B5CC36500D9091DC0
:100930008165084670470000545B000810B5014609
:1009400000208B698A6A4FF0C07453B1B3F5005F21
:1009500015D072B1012A0CD0022A0AD0032A09D17B
:1009600004E01AB1012A06D0022A03D1C96AC901DA
:1009700000D5012010BDC96AA142FAD010BD002ADD
:10098000F7D0012AF2D0022AF3D0032AF3D010BD07
:1009900030B50468256825F4802525600468636007
:1009A0008368402B036803D099600068C26030BD43
:1009B0009A600068C16030BD704772B6FEE7000003
:1009C00010B500F0D1F843490868022809D0C0B139
:1009D00001281BD003281ED0042821D0022803D0D0
:1009E00021E04A68022A08D04A687AB3012A30D046
:1009F000032A30D0042A30D015E08A689AB9002042
:100A000010BD4A68022A0ED1012010BD4A68022A90
:100A100009D1022010BD4A68022A04D1032010BD6A
:100A20004A68022A10D08A68012A18D0C8B1012861
:100A300021D0D0B123D003282FD0042837D00328C9
:100A40002FD0042837D03BE0042010BDFFE705205D
:100A5000FBE70620F9E70720F7E70820F5E709207C
:100A6000F3E7486888B101280FD04868032810D000
:100A700004280ED024E0486838B1012807D048681F
:100A8000032806D0042806D01AE00A20DDE70B2050
:100A9000DBE70C20D9E70D20D7E7486890B10128A3
:100AA00010D04868032811D004280FD008E0486807
:100AB00040B1012808D04868032807D0042807D08F
:100AC0001220C2E70E20C0E70F20BEE71020BCE7CF
:100AD0001120BAE71C03002010B5194C1021204644
:100AE00000F0FAFD174908702021204600F0F4FDBF
:100AF000154908704021204600F0EEFD13490870AA
:100B00008021204600F0E8FD11490870A115114C24
:100B1000204600F0E1FD104908708021204600F0D9
:100B2000DBFD0E4908704021204600F0D5FD0C4940
:100B300008702021204600F0CFFD0A49087010BD42
:100B4000000C024038000020390000203A0000204C
:100B50003B000020000402403C0000203D0000203B
:100B60003E0000203F0000202DE9F05F02223349C3
:100B7000334800F02DFA314A40F2E737002510885B
:100B80000126431E2F4C4FF4C77B4FF0020C4FF051
:100B9000040840F2AF494FF0030A40F21F31BB4254
:100BA00001D2256019E0A0F2E9338B4201D2266020
:100BB00013E0A0F209735B4502D8C4F800C00CE052
:100BC000A0F699038B4202D2C4F8008005E0A0F69B
:100BD000B930484501D2C4F800A05088421EBA423C
:100BE00001D2656019E0A0F2E9328A4201D2666062
:100BF00013E0A0F209725A4502D8C4F804C00CE010
:100C0000A0F699028A4202D2C4F8048005E0A0F658
:100C1000B930484501D2C4F804A00B4F082138462A
:100C200000F05AFD40B10821384600F055FD01287A
:100C300000D1A560BDE8F09FA660FBE7740000202E
:100C4000B80000201C03002000080240704700008C
:100C500078B50024009490F83C20012A19D0012294
:100C600080F83C200A6807230568092A13D9EE6832
:100C70000A3A02EB420293409E43EE600B788A6888
:100C80000A3B03EB43039A400368DD682A43DA60BA
:100C900010E0022078BD2E6902EB420293409E4391
:100CA0002E610B788A6803EB43039A4003681D6941
:100CB0002A431A614A681F23072A13D205686E6BFC
:100CC000521E02EB820293409E436E630B790A88A8
:100CD0005B1E92B203EB83039A4003685D6B2A4369
:100CE0005A6327E005680D2A12D22E6BD21F02EB41
:100CF000820293409E432E630B790A88DB1F92B2D7
:100D000003EB83039A4003681D6B2A431A6311E0C7
:100D1000EE6A0D3A02EB820293409E43EE620B793B
:100D20000A880D3B92B203EB83039A400368DD6AA5
:100D30002A43DA62164B0568144A9D4206D10D68B3
:100D4000122D03D1556845F48005556005689D4214
:100D500018D10B68102B01D0112B13D1536843F419
:100D600000035360096810290CD10A490A4A09682E
:100D7000B1FBF2F101EB8101490000E0491E009155
:100D80000029FBD180F83C40002078BD00230140C1
:100D9000002001404C00002040420F007047704787
:100DA000704770B5044600680668456816F0020F83
:100DB00005F020012AD049B3216CC90603D4216C67
:100DC00041F400712164816811F0405F17D1217EE8
:100DD000A9B9C16A11F4700F02D0816849050ED417
:100DE000416821F020014160206C20F48070206473
:100DF000206CC00403D4206C40F001002064204625
:100E0000FFF7CCFF21686FF01200086016F0040FA6
:100E100005F0800132D089B3206CC00603D4206C69
:100E200040F4005020642068816811F4401F1ED1F6
:100E3000816B11F4401F02D08168490517D44168C5
:100E4000490514D4816811F0405F10D1217E71B939
:100E5000416821F080014160206C20F480502064C2
:100E6000206CC00503D4206C40F0010020642046B3
:100E7000FFF7ECFE21686FF00C00086016F0010F20
:100E800005F040010FD071B120680068C0070AD09A
:100E9000206C40F480302064204600F043F8216844
:100EA0006FF00100086016F0200F05F080610ED091
:100EB00000290CD0606C40F00200606420686FF084
:100EC000200505602046FFF76BFF2068056070BDB8
:100ED00070B504004FF0000503D0206C002610B15F
:100EE00007E0012070BD204600F01EF8666484F81B
:100EF0003C60206CC00610D4206C20F4885040F078
:100F0000020020642046FFF769FC6664206C20F034
:100F1000020040F00100206400E0012584F83C60FC
:100F2000284670BD7047000070B586B00646142193
:100F30006846FFF72BFB2149306888423BD12048A7
:100F40000025016841F480710160006800F4807040
:100F500005901B481438016841F0040101600068E5
:100F6000694600F00400059003200090CDE90105DA
:100F7000144800F0B9FA154C1348C4E900050015EF
:100F8000A560C4E90350400060618000A061401189
:100F9000C4E907052046656200F0F2F908B1FFF7E1
:100FA0000CFDB463002211461220A66300F02EFF50
:100FB000122000F01DFF06B070BD000000200140AF
:100FC0004438024000080240106402400001002042
:100FD000F8B5044600200E46009094F83C10012914
:100FE00007D0012184F83C1021688B68DB0702D010
:100FF00011E00220F8BD8B6843F001038B6040498B
:10100000404B0968B1FBF3F101EB410100E0491EDF
:1010100000910029FBD121688B68DB0503D58B6823
:1010200023F480738B6021688B68DB075DD0236CB1
:1010300040F20165AB4343F480732364496849057A
:1010400005D5216C21F4005141F480512164216CBB
:10105000C90404D5616C21F00601616400E060649C
:1010600084F83C00A16B2948274DC863A16B284830
:101070000864A16B2748C86421686FF022000860EB
:101080002068416841F0806141602068816841F4D6
:10109000807181602168134632464C31A06B00F0AC
:1010A000D9F968681C49C006206806D0884224D156
:1010B000816811F0405F13D01FE08842F8D0174AD2
:1010C000904203D1D1F80423D206F1D0144A9042C1
:1010D00013D1D1F8041301F01F011029E8D30CE05B
:1010E000816841F08041816007E0206C40F0100091
:1010F0002064606C40F0010060640020F8BD0000D6
:101100004C00002040420F0000230140430700082C
:10111000C7070008B1070008002001400021014076
:10112000002201402DE9F0410446876D00F0DEFA0F
:10113000064694F835000025022806D08020606518
:1011400084F834500120BDE8F0812068016821F066
:10115000160101602068416921F080014161206C25
:1011600008B9A06C20B12068016821F00801016075
:101170002068016821F0010101600CE000F0B6FA7E
:10118000801B052807D920206065032084F83500DE
:1011900084F83450D7E720680068C007EED194F88F
:1011A0005C103F208840B860012084F8350084F846
:1011B00034500020C7E790F83510022903D0802171
:1011C000416501207047052180F8351000680168ED
:1011D00021F0010101600020704790F83500704750
:1011E0002DE9F84304464FF00009CDF8009063481C
:1011F0004FF41651A56D0068B0FBF1F72E6894F816
:101200005C10082000FA01F131420FD021680A6811
:1012100052070BD50A6822F004020A6094F85C10A9
:101220008840A860606D40F00100606594F85C1033
:101230004FF0010808FA01F0304208D021684969EE
:10124000090604D5A860606D40F00200606594F85E
:101250005C1004208840304208D021680968890762
:1012600004D5A860606D40F00400606594F85C10DF
:1012700010208840304218D021680968090714D529
:10128000A86020680168490304D50068000308D5F8
:10129000A16C07E00168C90503D4016821F00801C9
:1012A0000160216C09B12046884794F85C10202029
:1012B0008840304231D021680968C9062DD5A86020
:1012C00094F8350005282068016806D0490347D501
:1012D000006800031DD4616C1CE021F01601016060
:1012E0002068416921F080014161206C08B9A06C3F
:1012F00020B12068016821F00801016094F85C10B9
:101300003F208840A86084F8358084F83490216DAF
:101310001FE0E16B09B120468847606D00282BD0A3
:10132000606DC00714D0052084F83500206801687E
:1013300021F0010101600098401C0090B84203D8E0
:1013400020680068C007F6D184F8358084F83490AE
:10135000E16C002910D001B02046BDE8F0430847F9
:101360000168C905D5D4016821F01001016084F835
:10137000358084F83490CCE7BDE8F8834C00002039
:101380002DE9F041044600F0B1F906465CB10220B7
:1013900084F83500002584F834502068016821F075
:1013A000010101600DE00120BDE8F08100F09EF92F
:1013B000801B052805D920206065032084F83500AE
:1013C000F2E720680068C007F0D122681168204861
:1013D0000140D4E901031843D4E9033633431843E9
:1013E00063691843A3691843E3691843236A1843E0
:1013F0000843616A042903D1D4E90B131943084354
:10140000106020684069666A20F0070130460E438C
:10141000012704280CD1A06A0643E06A40B12046A7
:10142000FFF78CFA20B14020606584F83570BAE788
:10143000206846612046FFF76DFA94F85C203F2152
:1014400091408160656584F835700020ACE700004C
:101450003F8010F02DE9F0410446866D90F834008D
:10146000002501280DD0012084F8340094F835704F
:101470000020012F07D084F8340002252846BDE85B
:10148000F0810220FBE7022784F835706065204672
:10149000FFF77EFA94F85C103F208840B060206827
:1014A000016841F016010160206C20B120680168DC
:1014B00041F0080101602068016841F0010101600C
:1014C000DCE7000070B5044600F010F90546601C2A
:1014D00002D004480078044400F008F9401BA04200
:1014E000FAD370BD400000202DE9F84FDFF8BCA111
:1014F0000022012503264FF00F090AF1040BAAF17F
:10150000040E00BF0B6805FA02F42340A34270D119
:101510000F7907F00307012F01D0022F16D187683A
:101520004FEA420806FA08FC27EA0C07D1F80CC07B
:101530000CFA08FC4CEA070CC0F808C04768A7433F
:101540000C79C4F3001494403C4344600C79E443A8
:10155000A4070AD0C4684FEA420C06FA0CF7BC4351
:101560008F6807FA0CF72743C7600C7904F003046F
:10157000022C12D1D40800EB840CDCF82040570771
:10158000FF0E09FA07F824EA0804D1F8108008FAD7
:1015900007F848EA0408CCF8208004684FEA420CB7
:1015A00006FA0CF7BC430F7907F0030707FA0CF7AC
:1015B000274307604C6814F4403F70D03C4C2768C8
:1015C00047F480472760246822F0030704F480442E
:1015D0000094384C07EB040CDCF8084897074FEAF6
:1015E000177809FA08F7BC43334FB84202D10027F5
:1015F00024E054E0314FB84201D101271EE0304FC2
:10160000B84201D1022719E02E4FB84201D1032779
:1016100014E02D4FB84201D104270FE02B4FB84200
:1016200001D105270AE02A4FB84201D1062705E07B
:10163000284FB84201D1072700E0082707FA08F72A
:101640002743CCF80878DAF800405746D1F804C0B0
:101650009C435FEACC2C00D51C433C60DBF8004087
:101660005F46D1F804C09C435FEA8C2C00D51C4334
:101670003C60DEF800407746D1F804C09C435FEA46
:101680008C3C00D51C433C60084F083F3C68D1F8B7
:1016900004C09C435FEACC3C00D51C433C60521C18
:1016A000102AFFF42FAFBDE8F88F0000083C01407E
:1016B0004438024000300140000002400004024073
:1016C00000080240000C02400010024000140240DA
:1016D00000180240001C02400069084000D00120B0
:1016E00070470AB1816170470904FBE701488068CF
:1016F0007047000040000020704770472DE9F0411E
:10170000016804464A694E6890F83E000025D743B8
:10171000FA0506D4F243D20503D46FF48072012592
:101720004A61B90508D4F143C90505D422686FF4AC
:10173000007145F002055161790525D4F143C905D1
:1017400022D4638D94F83D10226B202808D13BB938
:10175000212910D029290ED0282901D1212A0AD0E7
:1017600022686FF48061516145F00405102806D0AD
:10177000402804D008E0204602F0FAF804E020688F
:10178000016841F400710160380508D4F043C005D8
:1017900005D421686FF4006045F008054861002D0C
:1017A00007D0206C284320642046BDE8F04101F0BA
:1017B000F9BCBDE8F0812DE9F047026800215368CB
:1017C000C66A90F83E4090F83D50102C12D0402C44
:1017D00010D0046C002C7DD05469E443A6077AD461
:1017E000DE43B60577D4036C03B19169BDE8F047D9
:1017F00002F09AB8976951694FF42A0CC9435FEA1D
:10180000C1784FF02A4904D066452AD04E4528D0E9
:1018100010E0DE43B6050DD4C16A614501D1012156
:1018200003E0C16A494501D10821C162BDE8F04722
:1018300001F08CBF0E0716D4DE43B60513D4416CFD
:10184000C9B21161416B09B1C96B29B9816B00291A
:1018500007D0C96B002904D00068416841F40061D9
:101860004160BDE8F0878E0706D4DE43B60503D499
:10187000BDE8F04701F0DEBEFE43526876074FEA4E
:1018800002521DD4002AECDB0A0608D4DA435205C2
:1018900005D4490705D5BDE8F04701F06FBE4907FB
:1018A000DFD4D9438905DCD4212D05D0402CD8D1F3
:1018B000BDE8F04701F090BFBDE8F04701F01CBE65
:1018C000002ACEDB4A060BD4DA43520508D4490776
:1018D00008D501E00DE00EE0BDE8F04701F092BD53
:1018E0004907BED4D9438905BBD4BDE8F04701F010
:1018F0001CBD916970E7E10606D4D943890503D47C
:10190000BDE8F04702F07CB82821212D27D0292DF1
:1019100025D0650655D4DD436D0552D4640752D5F4
:1019200090F83D30448D002C9BD01269446A22709F
:10193000426A521C4262428D521E4285428D002AEA
:101940008FD12A2B8DD10268536823F480635360B2
:101950002222026380F83D1000F0EEF981E72506AF
:1019600023D4DD436D0520D4640720D590F83D30A5
:10197000448D002CF2D0446A24781461426A521CCF
:101980004262428D521E4285428D002AE6D1292BA9
:10199000E4D10268536823F4806353602122026318
:1019A00080F83D1000F0C9F95BE76107D6D4D94350
:1019B0008905D3D4418D0029D0D0416A09781161BD
:1019C0000AE06107CAD4D9438905C7D4418D0029EB
:1019D000C4D01169426A1170416A491C4162418D4B
:1019E000491E41853DE7704770B5040025D094F845
:1019F0003D00002520B984F83C50204600F056F9FF
:101A0000242084F83D002068016821F00101016074
:101A10002068016841F4004101602068016821F4F8
:101A20000041016000F0BEFA4D4A6168914201D860
:101A30004C4900E04C49884201D2012070BD4B491D
:101A40002368B0FBF1F15E6826F03F060E435E604E
:101A50006368934206D94FF4967359434FF47A73EF
:101A6000B1FBF3F12368491C1E6A26F03F0631439F
:101A700019626168914210D84900401EB0FBF1F232
:101A8000521CC2F30B02042A01D2042022E0B0FB54
:101A9000F1F0401CC0F30B001CE0A268F2B301EBB4
:101AA000C10303EB0116431EB3FBF6F35B1C43F4C7
:101AB00080431B0549D092B301EBC10202EB011137
:101AC000401EB0FBF1F0401CC0F30B0040F480401E
:101AD00040F400402168CA694CF6FF739A431043F2
:101AE000C861D4E9071001432068026822F0C002EF
:101AF00011430160D4E9030101432068826848F280
:101B0000FF339A4311438160D4E9050108432168FA
:101B1000CA6822F0FF021043C86001E00EE016E040
:101B20002068016841F0010101602564202084F8EB
:101B30003D00256384F83E50002070BD01EB410656
:101B4000431EB3FBF6F35B1CB3E70120C2E701EBD6
:101B50004101401EB0FBF1F0401CC0F30B00B7E7A1
:101B6000A086010080841E0000093D0040420F0055
:101B70007047704770477047704700002DE9FF4F6E
:101B800083B09A46DDE9119793460446DDF840801C
:101B9000FFF7ACFD054694F83D0020287FD11923BE
:101BA000012240492046009502F004F8002876D131
:101BB00094F83C00012872D0012084F83C00206891
:101BC0000168C90703D1016841F001010160206883
:101BD000016821F400610160212084F83D0040206B
:101BE00084F83E0000262664C4F82480A4F82A90D5
:101BF000608D20852C48E062CDE9007553465A4639
:101C00002046049901F03CFE70B930E02A4639467E
:101C1000204602F075F858B1206C042804D12068E1
:101C2000016841F400710160012007B0BDE8F08F48
:101C3000606A216800780861606A401C6062218DDA
:101C4000491E89B22185628D521E628522685369C0
:101C5000DB435B070BD469B100781061606A401CFC
:101C60006062208D401E2085608D401E6085208D25
:101C70000028CBD12A463946204601F06FFF0028C4
:101C8000CAD154F83D0B016841F400710160202075
:101C900004F81E09E67766770020C6E7FFE7022012
:101CA000C3E70000020010000000FFFF10B586B07F
:101CB000044614216846FEF769FC1C4920688842E6
:101CC00031D11B480021026842F002020260006824
:101CD00000F0020005904FF4406000901220CDE922
:101CE0000101032003900420049069461148FFF786
:101CF000FBFB0F481030016841F48001016000686F
:101D0000002200F4800005901146212000F07EF8AA
:101D1000212000F06DF800221146222000F076F814
:101D2000222000F065F806B010BD00000058004009
:101D30003038024000040240704770470248816812
:101D40000278114481607047400000200B4810B5B4
:101D5000016841F400710160016841F48061016033
:101D6000016841F480710160032000F06FF80F20DA
:101D700000F006F800F024F8002010BD003C0240FE
:101D800070B50D4D04464FF47A712878B1FBF0F030
:101D90000A490968B1FBF0F000F00AFB48B9102CC1
:101DA00007D200222146501E00F030F800206C605F
:101DB00070BD012070BD0000400000204C000020DC
:101DC0000A4808B5016841F480410160006800F4E8
:101DD000804000900548001F016841F0805101607B
:101DE000006800F08050009008BD000044380240B8
:101DF000002809DB00F01F0201219140400980000A
:101E000000F1E020C0F8001170470000F0B40E4B64
:101E10001B680C46C3F30223C3F10705042D00D948
:101E20000425191D072901D2002300E0DB1E01262D
:101E300006FA05F1491E214099409E40761E164043
:101E40003143F0BC02F006BF0CED00E0064900F0A3
:101E5000070208684FF6FF03184040EA0220034AD1
:101E600010430860704700000CED00E00000FA0528
:101E70002DE9F0470E46050065D0DFF81481D8F84B
:101E80000000F7B200F00700B04207D288F80070F7
:101E9000D8F8000000F00700B04254D128683D4C4B
:101EA000810712D5400703D5206840F4E050206038
:101EB0002878000703D5206840F46040206020683F
:101EC000A96820F0F000084320602878C0072DD0D2
:101ED000304968680839012812D0022813D0032835
:101EE00011D00968890700292DDA216821F0030142
:101EF00001432160FFF7FAFB814641F2883A0EE088
:101F000009688903EFE709688901ECE7FFF7EEFB51
:101F1000A0EB0901514502D90320BDE8F0872068F4
:101F2000696800F00C00B0EB810FEFD1D8F8001019
:101F3000404601F00701B14207D90770006800F080
:101F40000700B04201D00120E7E72878400705D517
:101F50002068E96820F4E0500843206028780007F2
:101F600006D52068296920F4604040EAC10020605D
:101F700000F038F82168084AC1F30311515CC840E9
:101F80000649086006480068FFF7FAFE0020C4E72B
:101F9000003C0240083802405C5B00084C00002016
:101FA000440000200448054900680968044AC1F358
:101FB0008221515CC84070474C0000200838024024
:101FC0006C5B00080448054900680968044AC1F3CD
:101FD0004231515CC84070474C0000200838024034
:101FE0006C5B0008154810B5006810F00C0214482E
:101FF00013D04110042A0FD0082A0ED10F4C241FF1
:102000002268236802F03F025B0207D52068C0F314
:102010008810A0FB010106E0084610BD2168C1F34D
:102020008811A1FB00010023FEF722F92168C1F30A
:102030000141491C4900B0FBF1F010BD08380240D5
:102040000024F4002DE9F84F04006ED02078DFF86A
:102050004C93C007A9F104054AD009F104000168B6
:10206000C1F38101012908D00068C0F38100022872
:102070000AD1D9F80000400206D52868800337D578
:1020800060680028E1D033E06068B0F5803F10D090
:10209000B0F5A02F286810D020F480302860286880
:1020A00020F4802028606068A8B1FFF71FFB064677
:1020B0000DE0286840F48030F4E740F48020286088
:1020C000F7E700BFFFF712FB801B642873D828686E
:1020D0008003F7D50CE0FFF709FB064605E000BFDB
:1020E000FFF704FB801B6428F0D828688003F7D42E
:1020F0002078DFF8AC8280074FF0000A3ED5A74871
:10210000001D016811F00C0F08D00068C0F38100B9
:1021100002280BD1D9F80000400207D428688007B4
:1021200016D5E068012800D112E033E1E068B8B1CB
:102130000120C8F80000FFF7D9FA064605E000BF05
:10214000FFF7D4FA801B0228C0D828688007F7D58B
:102150002868216920F0F80040EAC10028600DE0FD
:10216000C8F800A0FFF7C2FA064604E0FFF7BEFA7F
:10217000801B02281FD828688007F7D42078000722
:1021800022D5864F87486169703771B1012101609E
:10219000FFF7ACFA064604E0FFF7A8FA801B022816
:1021A00009D838688007F7D50EE0C0F800A0FFF71F
:1021B0009DFA064605E082E0FFF798FA801B0228A8
:1021C0007DD838688007F7D42078400768D5DFF8D5
:1021D000CCB100270BF13C0BDBF80000C0000BD4A6
:1021E000DBF8001041F08051CBF80010DBF8000064
:1021F000012700F0805000906B4E3068C00510D46D
:10220000306840F480703060FFF770FA009005E0AD
:10221000FFF76CFA0099401A022850D83068C005C0
:10222000F6D55E4EA0686C3601280FD005283068C0
:1022300010D020F001003060306820F004003060E1
:10224000A068B8B1FFF752FA00900FE0306840F094
:102250000100F4E740F004003060F7E7FFF746FACA
:102260000099411A41F28830814266D8306880076F
:10227000F4D50EE0FFF73AFA009007E0FFF736FAE0
:102280000099411A41F28830814256D8306880075F
:10229000F4D42FB1DBF8001021F08051CBF80010FE
:1022A000A069C8B33D49091D0968C1F3810102292C
:1022B0004AD00228504607D0C8F8600000E03CE051
:1022C000FFF714FA04463BE04746C8F86000FFF702
:1022D0000DFA064605E000BFFFF708FA801B02284A
:1022E0002BD828688001F7D4D4E907010843A16AF4
:1022F0002E4A490802EB0141626A41EA8211084311
:1023000094F82C1040EA0161C9F8001001203866E9
:10231000FFF7ECF9044606E03EE000BFFFF7E6F900
:10232000001B022809D828688001F7D534E000BFD7
:10233000FFF7DCF9001B022802D90320BDE8F88F63
:1023400028688001F4D427E00128F7D0D9F80000EC
:10235000E26900F4800191421CD1226A00F03F0141
:10236000914217D147F6C071626A0140B1EB821FFA
:1023700010D1A26A4FF0FF3300F4403103EB520258
:10238000B1EB024F06D194F82C1000F07060B0EB66
:10239000016F01D00120D1E70020CFE704380240CF
:1023A00000004742800E4742007000400000FFFFDF
:1023B00010B5401EB0F1807F01D3012010BD4FF059
:1023C000E02460610F21601702F044FC0020A0614E
:1023D00007202061002010BD7047704770B590F84D
:1023E0003C20012A32D0012480F83C40022280F8AF
:1023F0003D2003685A689D6822F070060A683243DF
:102400005A60134B02689A4214D0B2F1804F11D037
:10241000104B9A420ED0104B9A420BD00F4B9A425F
:1024200008D00F4B9A4205D00E4B9A4202D00E4B69
:102430009A4204D1496825F080031943916080F8DD
:102440003D40002180F83C10084670BD022070BD60
:10245000000001400004004000080040000C004063
:1024600000040140004001400018004010B5040085
:1024700003D094F83D0010B107E0012010BD00200A
:1024800084F83C00204600F01FF8022084F83D004C
:10249000211D206802F05AF8012084F8460084F8D3
:1024A0003E0084F83F0084F8400084F8410084F83E
:1024B000420084F8430084F8440084F8450084F81E
:1024C0003D00002010BD000008B501681048B1F1C2
:1024D000804F14D00F4A914219D1016841F0020196
:1024E00001600068002200F00200009011461D20EB
:1024F000FFF78CFCBDE808401D20FFF779BC0168A0
:1025000041F001010160006800F00100009008BD89
:10251000403802400004004090F83D10012901D0ED
:1025200001207047022180F83D100168CA6842F01E
:102530000102CA6000681149884214D0B0F1804F8E
:1025400011D00F4988420ED00E4988420BD00E4957
:10255000884208D00D49884205D00D49884202D0F2
:102560000C49884204D1816801F00701062903D093
:10257000016841F001010160002070470000014046
:102580000004004000080040000C0040000401402E
:10259000004001400018004070B5044690F83C002F
:1025A0000025012817D0012684F83C60022084F819
:1025B0003D002068826822F0770222F47F42826028
:1025C0000868502838D00DDC20284FD005DC90B3A7
:1025D000102811D14AE0022070BD302846D0402892
:1025E0000AD13BE060282FD070280DD0B0F5805F75
:1025F00003D0B0F5005F12D0012584F83D600020C3
:1026000084F83C00284670BDCB68D1E901212068E0
:1026100002F015F82068816841F0770109E0CB6885
:10262000D1E90121206802F00AF82068816841F4AC
:1026300080418160E1E719E0CA684968206802F0DA
:10264000D3F85021206806E0CA684968206802F083
:10265000DCF86021206801F0FCFFCEE7CA68496819
:10266000206802F0C1F840212068F4E722680146A2
:102670001046F0E72DE9F0410D46040003D094F830
:102680003D0018B108E00120BDE8F081002084F889
:102690003C00204600F040F8022084F83D0020680D
:1026A000816844F2070291438160211D206801F096
:1026B0004DFF226890689169166A2B68AF690343E1
:1026C00040F20330814341EA0721A868EF690843DB
:1026D0004FF6FC418843E96840EA07200143286936
:1026E0002F6A000140EA0730084369686D6926F0E7
:1026F000AA0646EA0515294393602268906154F8BA
:10270000460B0162012004F81F09E0752076E0768F
:102710002077A0750020B7E730B587B004461421B4
:102720006846FDF733FF214824681F4D00221F49EA
:1027300010380223AC4217D10C6844F004040C603A
:10274000096801F004010591016841F00801016088
:102750000068694600F0080005904FF44050009072
:10276000CDE90132124818E0124DAC4219D10C6883
:1027700044F008040C60096801F008010591016843
:1027800041F0010101600068694600F00100059018
:1027900003200090CDE901320748CDE90323FEF77D
:1027A000A3FE07B030BD00000008004040380240E2
:1027B000000C0240000C00400000024070B590F890
:1027C0003E60044690F83F5090F8423090F8432025
:1027D000022021B104290ED0012E1BD114E0012EBC
:1027E00018D1012B16D184F83E0084F84200012252
:1027F0000021206820E0012D0CD1012A0AD184F8A3
:102800003F0084F8430014E0012D03D1012B01D1D6
:10281000012A01D0012070BD84F83E0084F83F00F9
:1028200084F8420084F8430001220021206801F06E
:10283000F9FE01220421206801F0F4FE20680168FD
:1028400041F001010160002070BD70472DE9F041A9
:1028500004460068C66805694FF00007A90713D54C
:10286000B10711D5F91E0161012020772068806928
:102870008007204602D0FFF7E8FF04E000F0BEF832
:10288000204600F050F92777680716D5700714D551
:1028900021686FF0040008610220207720688069B9
:1028A00010F4407F204602D0FFF7CFFF04E000F095
:1028B000A5F8204600F037F92777280715D5300707
:1028C00013D521686FF00800086104202077206884
:1028D000C0698007204602D0FFF7B7FF04E000F090
:1028E0008DF8204600F01FF92777E80616D5F00688
:1028F00014D521686FF01000086108202077206847
:10290000C06910F4407F204602D0FFF79EFF04E02C
:1029100000F074F8204600F006F92777E80708D0A1
:10292000F00706D021686FF001000861204600F032
:102930005FF9280608D5300606D521686FF08000BB
:1029400008612046FFF748FD680608D5700606D5E1
:1029500021686FF040000861204600F0B1F9A80638
:102960000AD5B00608D521686FF02000086120461E
:10297000BDE8F041FFF731BDBDE8F08110B586B08C
:10298000044614216846FDF701FE2368002117481C
:102990000222B3F1804F17D0154CA34212D1036825
:1029A00043F002030360006800F00200059010206D
:1029B0000090CDE90121CDE903120E48694600BF20
:1029C000FEF792FD06B010BD036843F001030360FB
:1029D000006800F0010005900C200090CDE9012175
:1029E0000120CDE9031069460348E9E73038024089
:1029F000000400400004024000000240704770B52F
:102A0000044690F83C0000260D4601280FD0012016
:102A100084F83C006AB1042A1DD0082A2FD00C2A61
:102A20003FD00126002084F83C00304670BD0220D3
:102A300070BD206801F016FE2068816941F0080130
:102A400081612068816921F00401816120688169C8
:102A50002A69114311E0206801F034FE2068816981
:102A600041F4006181612068816921F480618161A4
:102A7000206881692A6941EA02218161D2E72068E0
:102A800001F056FE2068C16941F00801C16120686B
:102A9000C16921F00401C1612068C1692A6911433B
:102AA00011E0206801F078FE2068C16941F40061FE
:102AB000C1612068C16921F48061C1612068C16978
:102AC0002A6941EA0221C161ACE710B5040003D0D4
:102AD00094F83D0010B107E0012010BD002084F8FB
:102AE0003C00204600F01EF8022084F83D00211D25
:102AF000206801F02BFD012084F8460084F83E0098
:102B000084F83F0084F8400084F8410084F84200D3
:102B100084F8430084F8440084F8450084F83D00BC
:102B2000002010BD7047704710B50446022249B11D
:102B300004290ED0082913D094F84100012816D09A
:102B4000012010BD94F83E000128F9D184F83E2000
:102B50000FE094F83F000128F2D184F83F2008E00C
:102B600094F840000128EBD184F8402001E084F87B
:102B700041200122206801F055FD16492068164ABF
:102B8000884201D0904203D1436C43F40043436434
:102B90002068884213D0B0F1804F10D00F4988428E
:102BA0000DD00F4988420AD00E49884207D0904282
:102BB00005D00D49884202D00C49884204D1816871
:102BC00001F00701062903D0016841F0010101600D
:102BD000002010BD0000014000040140000400403E
:102BE00000080040000C0040004001400018004078
:102BF00070B52E49884258D12D480068406A2D4C46
:102C0000606060682168401A2061606821684FF642
:102C1000FF75884204DA60682168401A2844206100
:102C200060682060206902F0F5F9BDEEC00A84ED0D
:102C30000B0AB8EEC00AD4ED0A0A30EEC00A84EDE1
:102C40000D0AA069012805D1E069401CE0611A481D
:102C500001F0F0FB19480068406AE060E068A16894
:102C6000401A6061E068A168884204DAE068A168FF
:102C7000401A28446061E068A060606902F0CAF907
:102C8000BDEEC00A84ED0C0AB8EEC00AD4ED0A0A03
:102C900030EEC00A84ED0D0AA069012805D1BDE817
:102CA00070400548203001F0C5BB70BDFC0100201C
:102CB0004402002000000020780000208C02002048
:102CC0007047704770470000F8B50168044608680F
:102CD000CA684B6910F00F0F4FF0000559D003F090
:102CE000010602F49077374365D0C10705D0D105BE
:102CF00003D5616C41F001016164410705D5D90735
:102D000003D0616C41F002016164810705D5D907E8
:102D100003D0616C41F004016164010707D502F042
:102D20002001314303D0616C41F008016164616CA2
:102D300000293AD0800604D5900602D5204601F03D
:102D4000A5FD20684069616CC0F38010090700D4BC
:102D500060B3204601F073FD20684069400621D52C
:102D60002068143050E8001F21F0400140E80012B4
:102D7000002AF5D1E06BA8B16E490165E06BFEF762
:102D80001AFA002811D0E06B016D01B0BDE8F040E7
:102D9000084783060FD593060DD52046BDE8F840B9
:102DA00001F074BD2046FFF78DFFF8BD2046FFF708
:102DB00089FF6564F8BD266B2023012E7DD1C606F0
:102DC0007BD5D60679D508684868009048694FF0E9
:102DD0000206400641D5E16B086840680004000C1B
:102DE000E8D0A28D8242E5D9E085C869B0F5807F40
:102DF0002DD020680C3050E8001F21F4807140E88D
:102E00000012002AF5D12068143050E8001F21F08C
:102E1000010140E80012002AF5D12068143050E882
:102E2000001F21F0400140E80012002AF5D184F88B
:102E30004230256320680C3050E8001F21F010015B
:102E400040E80012002AF5D1E06BFEF76BF96663EB
:102E5000A08DE18D401A81B22AE0A08DE18D401A4B
:102E600081B2E08D0028A5D00029A3D022680C32C1
:102E700052E8000F20F4907042E80007002FF5D1CF
:102E80002068143050E8002F22F0010240E80027AB
:102E9000002FF5D184F84230256320680C3050E8CB
:102EA000002F22F0100240E80023002BF5D16663CA
:102EB0002046FFF706FFF8BDFFE705062BD51506F0
:102EC00029D594F841002128F5D1A068B0F5805F9C
:102ED00001D12069B0B1206A411C216221680078CB
:102EE0004860E08C401E0004000CE084E3D12068C0
:102EF000C16821F08001C1602068C16841F04001D3
:102F0000C160D8E7206A0088C0F308004860206AE2
:102F1000801C2062E5E74006CDD55006CBD5CA68B7
:102F2000204622F04002CA6084F8413000F0C5F823
:102F3000C1E700002F48000870B5040004D094F8E1
:102F40004100002510B106E0012070BD84F840501A
:102F5000204600F023F8242084F841002068C1684E
:102F600021F40051C160204601F0F2FC20680169A3
:102F700021F4904101612068416921F02A014161F9
:102F80002068C16841F40051C1606564202084F864
:102F9000410084F842006563002070BD10B586B022
:102FA000044614216846FDF7F1FA18492068884262
:102FB00029D117480021026842F01002026000681F
:102FC00000F01000059012481438026842F0010227
:102FD0000260006800F0010005904FF4C0600090AE
:102FE0000220CDE9010103200390072004906946E7
:102FF0000848FEF779FA002211462520FEF706FF61
:103000002520FEF7F5FE06B010BD000000100140BF
:10301000443802400000024070472DE9F84304465E
:1030200090F84100984616460D46202802D002200E
:10303000BDE8F88385B17EB100206064212084F86A
:103040004100FEF753FBA6848146E684A068202752
:10305000B0F5805F02D003E00120E9E7206910B1FC
:103060002E4600250EE000260CE08021204601F0CF
:10307000F5FCA8B9C6B116F8010B21684860E08CD0
:10308000401EE084E08C4B464FF00002CDF80080FB
:103090000028EAD14FF04001204601F0DFFC40B1AA
:1030A00084F841700320C3E735F8020BC0F3080031
:1030B000E3E784F841700020BAE77047FEE70000BC
:1030C0000148FEF71BBB0000600100200148FEF72D
:1030D00072BB00006001002038B5806B002190F8C1
:1030E0003D202B4B46F2A8141B68B3FBF4F3C3EB53
:1030F000C30303EB830300933BB15B1E00930368A0
:103100001B689B0505D5009BF6E7036C43F0200385
:103110000364436B03B1D963836B03B1D963036861
:103120001C6824F480641C604185436B03B11965FD
:10313000836B03B1196503681C6824F001041C60EB
:1031400090F83D402023602C0BD0282434EA020262
:103150000FD080F83D3080F83E1000BFFEF743FCF2
:1031600038BD80F83D3080F83E100164FEF7C4FAA7
:1031700038BD0268136843F00103136002681368E6
:1031800043F480631360016380F83D40E6E700008C
:103190004C00002000684169C943090601D40021A0
:1031A0000161704770B5044690F83D0094F83E10F8
:1031B000102901D0402906D1222804D121680A68AB
:1031C00022F400620A60282131EA00024FF0000573
:1031D0004FF0200626D021684968090505D46028EB
:1031E00003D084F83D6084F83E5025632068416830
:1031F000090537D5416821F400614160606B90F8A2
:1032000035203C49012A11D00165606BFDF7D3FFE1
:1032100038B32068016821F00101016084F83D6045
:10322000606B1CE0256384F83D10DFE7A06B01654F
:10323000A06BFDF7C0FFA0B120684169C9434906F2
:1032400005D40069616A0870606A401C6062206889
:10325000016821F00101016084F83D60A06B016DFF
:10326000884710E094F83D10602910D04169C943A7
:10327000490605D40069616A0870606A401C606292
:103280002046FEF7B0FB206CC1071CD115E084F886
:103290003D6025644169C943490605D40069616AF6
:1032A0000870606A401C60622068016821F00101BA
:1032B00001602046FEF720FAE5E7810703D44107C5
:1032C00001D4000704D52068416821F4E061416021
:1032D00094F83D00216C49070BD5282809D10648F0
:1032E000E062256384F83D6084F83E502046FEF796
:1032F0003FFC70BDD93000080000FFFF01684A693B
:10330000D24352050FD46FF480624A61002140F825
:10331000301F202242738173026942F0040202616D
:103320000173012070470020704710B5C26A438DB9
:103330000168042B06D0438D032B08D0438D022B4C
:103340001DD012E04A6822F480624A600CE04B68AB
:1033500023F480634B60042A06D0022A04D001685B
:103360000A6822F480620A6001680969426A117081
:10337000416A491C4162418D491E418510BD012AA7
:1033800034D0102A32D0042A34D0022A32D00B682A
:1033900043F400730B6001680969436A1970416A5C
:1033A000491C4162438D5B1E438503681B690B709A
:1033B000416A491C4162418D491E418501684B6843
:1033C00023F440734B60202180F83D1090F83E308C
:1033D0000021402B80F83E1010D0082A02D0202A6D
:1033E00000D012210163FEF7C4FB10BD0B6823F46B
:1033F0008063CFE70B6843F48063CBE70163FEF79C
:10340000BAFB10BD38B590F83D10222910D1C36A1F
:10341000418D03290DD901680969426A1170416A19
:10342000491C4162418D491E4185418D032906D0C9
:1034300038BDC26A022A02D0012906D029B100682B
:10344000416821F48061416038BD2A4A46F2A814DF
:1034500000211268B2FBF4F202EB820200920268D1
:103460002024009D6D1E009526D01568AD05F8D46A
:10347000156825F4806515600268556825F4E065D7
:10348000556002681269456A2A70426A521C42629B
:10349000428D521E428580F83D4090F83E2080F8D3
:1034A0003E10402A21D0082B02D0202B00D0122120
:1034B0000163FEF75EFB38BD036C43F02003036439
:1034C000536823F4E063536002681269436A1A7018
:1034D000426A521C4262428D521E428580F83D4033
:1034E00080F83E10FEF77FFA38BD0163FEF743FB1C
:1034F00038BD00004C00002010B5C26A90F83D10A5
:1035000021290BD1418D51B1416A026809781161BD
:10351000416A491C4162418D491E418510BD2023ED
:103520000021082A13D0202A11D012F5803F0ED096
:103530000268546824F4E06454601122026380F845
:103540003E1080F83D3000BFFEF714FB10BD02684E
:10355000546824F4E06454600268146844F400740D
:103560001460016380F83D3090F83E2080F83E10F2
:10357000402AE9D1FEF700FB10BD000010B590F81D
:103580003D1090F83E30C26A048DB4B1212903D0B9
:10359000402B11D122290FD1418DE1B390F83E107B
:1035A000402942D0416A026809781161416A491C88
:1035B0004162418D491E418510BD2129E8D120235A
:1035C0000021082A13D0202A11D012F5803F0ED0F6
:1035D0000268546824F4E06454601122026380F8A5
:1035E0003E1080F83D3000BFFEF7C4FA10BD0268FF
:1035F000546824F4E06454600268146844F400746D
:103600001460016380F83D3090F83E2080F83E1051
:10361000402AE9D100E002E0FEF7AEFA10BD0068F2
:10362000416821F48061416010BDBDE8104000F0A8
:10363000D3B8000078B590F83E50C26A036B90F89A
:103640003D6000240168222E7AD1066D0EB9402D0E
:1036500076D0056D1DB90569B5F5404F09D0458D8A
:1036600005B3468D384D012E0ED0438D022B3AD036
:103670005DE04A698A6900920A6842F480720A60D1
:10368000016D491C016578BDAA4213D10A6822F474
:1036900080620A6001684A68120503D50A6822F44C
:1036A000806216E04A698A6900920A6842F40072F0
:1036B0000A6039E0082A10D0202A0ED0122B0AD036
:1036C000042A03D0022A01D0102AE7D10A6842F462
:1036D00080620A6024E0012AE0D00A6822F4806255
:1036E0000A600168DEE7042A21D0022A1FD0102ACE
:1036F0001DD00B6823F480630B6001680B6843F4F2
:1037000000630B6001684B681B0509D5AA4212D003
:10371000012A10D0082A0ED0102A0CD0202A0AD054
:1037200001684A6989690091046578BD08E00B6801
:1037300043F48063E5E74A6842F480524A60EFE769
:10374000486988690090F0E70000FFFF90F83E109C
:10375000402910D00169B1F5804F19D0016DA9B38E
:10376000016D012910D1416C5FF0F10201F440714B
:1037700042EAD11106E0016D0029416C05D0C9B2C1
:1037800041F0010100680161704701F0FE01F9E7B5
:1037900090F83D102129416C09D0C9B241F00101D6
:1037A00002681161416B29B1C96B49B902E001F0AE
:1037B000FE01F5E7816B0029E6D0C96B0029E3D053
:1037C0000068416841F4006141607047FFE7416C67
:1037D000F02201F44071CBE710B590F83D10026D76
:1037E0004AB1026D012A14D0026D022A16D0BDE83A
:1037F0001040FFF7CFBCC16C0129816C02D0C1F32E
:10380000072108E00268C9B21161016D891C0165D8
:1038100010BD816CC9B20268116123E022291CD05D
:10382000428D0AB1212920D0428D002AF0D12129D0
:10383000EED101684A6822F4E0624A6001680A68D1
:1038400042F400720A6000210163202280F83D20CA
:1038500080F83E10FEF790F910BD01680A6842F446
:1038600080720A60016D491CD1E7416A02680978DB
:103870001161416A491C4162418D491E418510BD5B
:103880002DE9F843044600680D46DDE90897016814
:103890009846164641F4807101604B4600224FF075
:1038A00001112046009700F085F948B120680068B2
:1038B000C00502D54FF4007020640320BDE8F883F2
:1038C000216805F0FE0008613B464A46154920463E
:1038D00000F0B8F988B920684169806900903A46DB
:1038E0004946204600F00CFA48B1206C042804D167
:1038F0002068016841F4007101600120DEE7F5B243
:10390000B8F1010F09D02168300A08613A464946EA
:10391000204600F0F5F90028E7D120680561002075
:10392000CCE700000200010038B50C4690F83D20BD
:1039300000212825954302680B4605D051699169FD
:10394000009180F83C3038BD556825F4806555609D
:10395000E243540700D50121120601D5828900E017
:10396000028B80F83C3092B2FDF7C7FE38BD0000F4
:103970002DE9F04190F83D300446C26A002120262E
:103980001E4F00686FF48065082A01D0202A01D1FB
:10399000282B04D0212B17D04561BDE8F081E762C8
:1039A000426822F4E0624260206845612068026853
:1039B00022F480620260216384F83D6084F83E1046
:1039C0002046FEF7D5F8E8E7E7622122226384F873
:1039D0003D6084F83E10416821F4E0614160206858
:1039E00045612068016821F4806101602046FFF78D
:1039F000D1FB2046FEF7A1F9CFE700000000FFFF52
:103A0000F8B590F83D6004460068416821F4E06133
:103A100041602068002541690091016841F0010181
:103A200001602068016821F48061016020684168BC
:103A3000090520D5474F222E48D02A2E46D0616B4B
:103A4000096849686185618D19B1216C41F00401F3
:103A50002164416821F400614160606BFDF7BDFBAA
:103A6000012808D0606B0765606BFDF7A4FB10B1FF
:103A7000606B016D8847608D08B320684169C94358
:103A8000490708D40069616A0870606A401C606276
:103A9000608D401E608520684169C943490608D48D
:103AA0000069616A0870606A401C6062608D401E37
:103AB0006085608D18B1206C40F004002064206C9B
:103AC00000B32046BDE8F840FFF76CBBA16B096866
:103AD00049686185618D19B1216C41F0040121644F
:103AE000416821F400614160A06BFDF776FB01287D
:103AF000C1D0A06B0765A06BFDF75DFB0028BAD0B5
:103B0000A06BB6E72A2E06D12563282084F83D0055
:103B10002046FEF711F994F83D10202028290DD0F9
:103B2000216B222901D0222E07D1256384F83D0084
:103B300084F83E502046FEF7FFF8F8BD0649E162E2
:103B4000256384F83D0084F83E502046FEF710F8C7
:103B5000F8BD0000D93000080000FFFF70B5164620
:103B60000D4604461EE02046FFF7C8FB08B10120C1
:103B700070BD681C16D0FDF7B9FD801BA84200D8A7
:103B800085B920684069C04340070BD5002044F840
:103B9000300F20216173A073216941F02001216160
:103BA0002073E4E720684069C0434007DBD400206D
:103BB00070BD00002DE9F047984617460D460446B3
:103BC000C1F30746DDF820902AE000BFB8F1FF3FBF
:103BD00026D0FDF78BFDA0EB0901414502D8B8F1D5
:103BE000000F1DD12068012E16D0806925EA000043
:103BF0000004000C12D00020B84211D1002044F87B
:103C0000300F20216173A073216941F020012161EF
:103C100020730120BDE8F0874069E7E70120EBE76A
:103C20002068012E0AD0806925EA00000004000CFB
:103C300006D00020B842C9D00020EBE74069F3E786
:103C40000120F7E72DE9F047984616460D46044651
:103C50004FF000094FF0200AC1F3074723E0206826
:103C60004069C043400515D42068016841F40071E3
:103C7000016021686FF480604861C4F8309084F876
:103C80003DA084F83E90216C41F00401216484F849
:103C90003C9021E0701C06D0FDF728FDA0EB080049
:103CA000B04203D816B1012F1FD021E02068012FA8
:103CB00015D0806925EA00000004000C18D000BF70
:103CC00044F8309F84F80DA084F80E90216941F0EB
:103CD0002001216184F80C900120BDE8F087406943
:103CE00025EA00000004000CEAD12068406901E0E8
:103CF0002068806925EA00000004000CAFD1ECE7E1
:103D000070B516460D4604461EE02046FFF7F6FA4B
:103D100008B1012070BD681C16D0FDF7E7FC801BC0
:103D2000A84200D885B920684069C04300060BD579
:103D3000002044F8300F20216173A073216941F005
:103D4000200121612073E4E720684069C043000638
:103D5000DBD4002070BD0000F0B587B014216846A8
:103D6000FCF714FC1C48016841F001010160006887
:103D70001A4E00F001000590102000906946304670
:103D8000FDF7B2FB2024694630460094FDF7ACFBFA
:103D90004025694630460095FDF7A6FB802000903F
:103DA00069463046FDF7A0FB0D4FE60069463846F0
:103DB0000096FDF799FB694638460096FDF794FB9F
:103DC000694638460095FDF78FFB694638460094F2
:103DD000FDF78AFB07B0F0BD30380240000C02400E
:103DE000000402401FB50021164800910191029184
:103DF000134A039102604FF48032C0E9012101614E
:103E0000017680F82010104AC0E90A210124C4611B
:103E1000C16080F830104461FDF75AF808B1FCF732
:103E2000CCFD0A20CDE90004032002906946054834
:103E3000FCF70EFF002801D0FCF7BFFD1FBD0000FE
:103E400000200140B80000200100000F094808B51B
:103E5000016841F4800101600068002200F48000E4
:103E6000009011463820FDF7D1FFBDE8084038200A
:103E7000FDF7BEBF303802402DE9F04786B014216F
:103E80006846FCF783FB43480024016841F0800149
:103E90000160016801F080010591016841F00401B1
:103EA0000160016801F004010591016841F0010120
:103EB0000160016801F001010591016841F0020112
:103EC0000160016801F002010591016841F00801FB
:103ED00001600068DFF8C09000F008000590012242
:103EE00004214846FDF7FDFBDFF8B0A001221021B8
:103EF0005046FDF7F6FB4FF47077002239464846EE
:103F0000FDF7EFFB01250420CDE900050295694688
:103F100048460395FDF7E8FA10260096CDE90154CE
:103F2000694650460394FDF7DFFA4FF440708DE880
:103F30003100DFF86C8069464046FDF7D5FA0097FE
:103F4000CDE90154694648460394FDF7CDFAE803EC
:103F50008DE8310069465046FDF7C6FAE620CDE906
:103F60000004694640460294FDF7BEFA4FF48810FB
:103F70000096CDE9010469464046FDF7B5FA781090
:103F8000CDE90004694607480294FDF7ADFA06B092
:103F9000BDE8F087303802400008024000000240CF
:103FA000000C0240000402400D4810B50B490160AE
:103FB0000C49416000214FF480428160C0E9031246
:103FC00041618161C1610162FDF70EFD002803D0EE
:103FD000BDE81040FCF7F1BC10BD000000580040E7
:103FE00060010020801A060010B58EB000240794EE
:103FF000089409940A940B941C2168460C94FCF7CD
:10400000C5FA22484FF08041016040F24731C0E9D3
:10401000011440F2E731C0E903148461FEF726FA87
:1040200008B1FCF7CAFC4FF48050079007A9174865
:10403000FEF7B2FA08B1FCF7C0FC1448FEF745FDE4
:1040400008B1FCF7BAFC0B940BA910480C94FEF7CE
:10405000C5F908B1FCF7B1FC6020CDE90004029479
:104060000822694609480494FEF7C9FC08B1FCF728
:10407000A4FC0C2269460548FEF7C1FC08B1FCF718
:104080009CFC0248FEF77AFC0EB010BDB401002083
:1040900010B58EB000240794089409940A940B94E8
:1040A0001C2168460C94FCF771FA1F481D490160F9
:1040B00040F24731C0E9011440F2CF71C0E9031466
:1040C0008461FEF7D3F908B1FCF777FC4FF4805018
:1040D000079007A91448FEF75FFA08B1FCF76DFCDA
:1040E0001148FEF7F2FC08B1FCF767FC0B940BA932
:1040F0000D480C94FEF772F908B1FCF75EFC6020E5
:10410000CDE9000402940022694607480494FEF7B2
:1041100076FC08B1FCF751FC0348FEF72FFC0EB00B
:1041200010BD000000040040FC01002010B58CB060
:1041300024216846FCF72AFA0024154809941349FB
:104140000A9401600121C0E901144FF6FF72C0E931
:1041500003248461CDE90014CDE902140494CDE96F
:104160000541079469460894FEF784FA08B1FCF704
:1041700024FC099409A906480A94FEF72FF900289F
:1041800001D0FCF71AFC0CB010BD00000008004084
:104190004402002010B58CB024216846FCF7F6F9E3
:1041A00000241548099413490A9401600121C0E9CB
:1041B00001148A1EC0E903248461CDE900140F2094
:1041C0000291CDE90340CDE90541CDE907406946BB
:1041D0000948FEF74FFA08B1FCF7EFFB099409A96B
:1041E00005480A94FEF7FAF8002801D0FCF7E5FB31
:1041F0000CB010BD000C00408C0200200C4810B523
:104200000A4901604FF4E1314160002181600C22D4
:10421000C160C0E904128161C161FEF78DFE002812
:1042200003D0BDE81040FCF7C8BB10BD0010014032
:10423000D4020020FEE7FEE770B5002404F1B000D0
:10424000C0B200F0C1F8002000F0BEF8102000F06D
:10425000BBF80025002000F0C9F86D1CEDB2802DE0
:10426000F8D3641CE4B2082CE8D370BD10B5C820A4
:10427000FDF728F9BDE8104000F0D2BC10B50446A7
:10428000B031C8B200F0A0F8102040EA141000F0DD
:104290009BF804F00F00BDE8104000F095B8000056
:1042A0002DE9F041203A00240D468046D6B27F2801
:1042B00003D900208D1C8046EDB2102B29460FD06B
:1042C000FFF7DCFF164906EB460001EB4005285DD1
:1042D00000F08CF8641CE4B2062CF8D3BDE8F08141
:1042E000FFF7CCFF0F4F00BF04EB0610385C00F067
:1042F0007DF8641CE4B2082CF6D36D1CE9B240468C
:10430000FFF7BCFF5FF0000404EB06103844007AAE
:1043100000F06CF8641CE4B2082CF5D3DEE7000072
:10432000745B00089C5D00082DE9F05F0026DDF855
:1043300028901D4692468B46804634464FEA5907E0
:1043400023E0281B401EC1B20A2000F047FEBAFB42
:10435000F0F00A21B0FBF1F201FB120026B9691E50
:104360008C4201DA38B101263030C2B207FB04803A
:10437000C0B24B4604E007FB0480C0B24B4620228B
:104380005946FFF78DFF641CE4B2AC42D9D3BDE8B7
:10439000F09F2DE9F041984617460E460446002549
:1043A0000DE0434631462046FFF77AFF0834E4B279
:1043B000782C02D90024B61CF6B26D1CEDB27A5DE1
:1043C000002AEED1BDE8F08101B584B001214FF49F
:1043D000807204A88DE807000B460022782102486D
:1043E000FDF7CCFB05B000BD6001002001B584B035
:1043F00001214FF4807204A88DE807000B4640228B
:1044000078210248FDF7BAFB05B000BD600100202D
:1044100080EC030A9FED060A80ED030A80ED040A92
:1044200080ED050AC0ED071A80ED062A70470000EE
:1044300000000000D0ED030A70EE800AC0ED030A10
:10444000D0ED011A90ED041A61EEA00AD0ED001A29
:1044500030EE411A41EE800AD0ED021A41EE810A97
:10446000C0ED050A90ED061AF4EEC10AF1EE10FA5D
:1044700002DCB0EE601A01E080ED051AD0ED070A0B
:10448000B4EEE01AF1EE10FA01D2C0ED050A80EDAB
:10449000040A704770477047FDF750BC30B593B0C1
:1044A00030216846FCF772F814210CA8FCF76EF86E
:1044B0001D480025016841F080510160006800F04E
:1044C000805011901948016841F4804101600068F2
:1044D000022400F48040119001200090000401901B
:1044E0008001CDE9064008AA0420A82182E8130033
:1044F0000B906846FDF7A6FD08B172B6FEE70CA961
:104500000F2081E831004FF4A0500F904FF48050FD
:10451000109005210CA8FDF7ABFC002801D072B665
:10452000FEE713B030BD000040380240007000408C
:104530000248016841F470010160704788ED00E0B5
:104540000148FEF783B90000FC010020F0B50268C5
:10455000294C2A4D2A4E2B4F2B4B4FF0804CA0421A
:1045600009D0604507D0A84205D0B04203D0B84278
:1045700001D0984204D122F0700E4A6842EA0E023D
:10458000A0421BD0604519D0A84217D0B04215D028
:10459000B84213D0984211D01C4DA8420ED01C4DE9
:1045A000A8420BD01B4DA84208D01B4DA84205D0F5
:1045B0001A4DA84202D01A4DA84203D122F44075E8
:1045C000CA682A434D6922F080022A4302608A6841
:1045D000C2620A688262A04201D0984201D1096990
:1045E0000163012141610169C90703D0016921F01B
:1045F00001010161F0BD0000000001400004004025
:1046000000080040000C0040000401400040014050
:10461000004401400048014000180040001C0040D8
:104620000020004010B501F01F030121046A9940E9
:104630008C430462016A9A401143016210BD10B5B7
:10464000846842EA032224F47F440A4322438260BE
:1046500010BD826822F070020A4342F007018160B7
:1046600070470000F0B5036A026A22F0010202629C
:1046700042688469124E24F073050C682C4323F0C1
:1046800002058B682B430D4DA84201D0B04205D1E5
:1046900023F00807CB683B4323F00403A84201D072
:1046A000B04205D14D6922F4407215438A692A430C
:1046B00042608461496841630362F0BD00000140CB
:1046C00000040140F0B5026A036A23F0100303629C
:1046D000436884690D6824F4E64444EA05248D683F
:1046E00022F0200242EA05120F4D104EA84201D0DE
:1046F000B04206D1CF6822F0800242EA071222F0CF
:104700004002A84201D0B04207D14D6923F4406372
:1047100043EA85038D6943EA850343608461496800
:1047200081630262F0BD000000000140000401400E
:10473000F0B5026A036A23F4807303624368C469B4
:1047400022F4007224F073050C68124E2C438D681D
:1047500042EA05220E4DA84201D0B04206D1CF68F0
:1047600022F4006242EA072222F48062A84201D0C9
:10477000B04207D14D6923F4405343EA05138D69D4
:1047800043EA05134360C4614968C1630262F0BD36
:10479000000001400004014030B5046A026A22F4BE
:1047A000805202624268C3690D6823F4E64343EA1B
:1047B00005238D6824F4005444EA0534084DA842CA
:1047C00002D0084DA84204D14D6922F4804242EA49
:1047D00085124260C36149680164046230BD000013
:1047E000000001400004014010B5036A046A24F08F
:1047F00001040462846924F0F00444EA021423F002
:104800000A020A438461026210BD10B5036A046A99
:1048100024F010040462846923F0A00324F470449B
:1048200044EA023243EA01118261016210BD10B50F
:10483000806B0021C185C184FEF744FA10BD016878
:104840000C3151E8002F22F4907241E80023002B34
:10485000F5D10168143151E8002F22F0010241E83E
:104860000023002BF5D1016B012909D101680C311E
:1048700051E8002F22F0100241E80023002BF5D16F
:10488000202180F8421000210163704708B590F89C
:104890004210222901D0022008BD82684FF48053C3
:1048A0009A4201D1016921B1816A9A421BD04AB171
:1048B0000AE00268816A5268C2F308020A80816ACB
:1048C000891C08E0026972B10268526802F07F0236
:1048D0000A70816A491C8162C18D491E0904090C54
:1048E000C18503D01BE002685268F1E70168CA681D
:1048F00022F02002CA600168CA6822F48072CA608D
:1049000001684A6922F001024A61202180F84210C0
:1049100000214163026B012A03D0FEF77DFB0020DA
:1049200008BD016301680C3151E8002F22F010022C
:1049300041E80023002BF5D101680A68D20602D5B0
:104940000A6849680091818DFEF7BBF9E7E700002E
:1049500070B5044600680169E26821F440511143D2
:1049600001612169A068E269084361691143084354
:104970002168CA6849F20C639A430243CA602068FE
:104980004169A26921F440711143416131492068B4
:10499000884202D03049884202D1FDF713FB01E082
:1049A000FDF700FBE2690023192164253226B2F5E8
:1049B000004F626828D0A0FB0101930F9200FBF723
:1049C00057FC0146B0FBF5F06FF01802504301EBC5
:1049D000800006EB0010B0FBF5F000F0F002B1FB38
:1049E000F5F002EB0012B1FBF5F06FF0180358433D
:1049F00001EB800006EB0010B0FBF5F000F00F00BB
:104A000021681044886070BDA0FB010192185B41D1
:104A1000FBF72EFC0146B0FBF5F00201B1FBF5F00F
:104A20006FF01803584301EB800006EBC000B0FBA9
:104A3000F5F000F0F80002EB4002B1FBF5F058434E
:104A400001EB800006EBC000B0FBF5F000F00700C2
:104A5000D6E7000000100140001401402DE9F843A2
:104A6000984617460D460446089E24E0701C22D046
:104A7000FCF73CFEA0EB0800B0421AD8CEB120688B
:104A8000C168490717D5802D15D0402D13D0016876
:104A9000C94309070FD401680025406800902046EB
:104AA000FFF7CDFE0820606484F840500120BDE887
:104AB000F8830320FBE72068006835EA000004D093
:104AC0000020B842D2D00020F1E70120F9E7000031
:104AD0000148FEF7F9B80000D402002000B599B0F3
:104AE0000B46024605A16846FBF73AFC82B26423F6
:104AF00069460648FEF791FA19B000BD564C3A25B2
:104B0000642C56523A25640D0A000000D40200209D
:104B1000FEE700003C49486A0A3801D5002002E05F
:104B20000A2800DD0A200A6A242A1FD2DFE802F0E0
:104B3000121E1E1E1E1E1E1E1E1E1425282B2E316A
:104B40003336393C3F4244474A4D505355585B5EDB
:104B5000616466692D4A01E02C4A2C3252F820002B
:104B600000EE100AB8EEC00A81ED0A0A91ED0A0AB9
:104B7000BDEEC00A10EE100A7047244A5832EDE725
:104B8000224A8432EAE7214AB032E7E71F4ADC32A0
:104B9000E4E71F4AE2E71E4A2C32DFE71C4A58329C
:104BA000DCE71B4A8432D9E7194AB032D6E7184A03
:104BB000DC32D3E7174AD1E7164A2C32CEE7154A42
:104BC0005832CBE7134A8432C8E7124AB032C5E7FD
:104BD000104ADC32C2E7104AC0E70F4A2C32BDE768
:104BE0000D4A5832BAE70C4A8432B7E70A4AB03263
:104BF000B4E7094ADC32B1E7084AAFE7074A2C328A
:104C0000ACE7064A5832A9E70000002080560008A9
:104C1000885700089058000898590008A05A0008C2
:104C2000FEB50024094F4FF4807501263819CDE9EF
:104C3000000601230022782102950548FCF79EFF1B
:104C4000641CE4B21B2CF1D3FEBD00005800002010
:104C5000600100200907090E002804DB00F1E020B4
:104C600080F80014704700F00F0000F1E02080F899
:104C7000141D704730380A2801D2012070470020E7
:104C80007047000070B5164E0D46044601224021C3
:104C90003046FCF726FD002280213046FCF721FD3E
:104CA000012211023046FCF71CFD0022711530462E
:104CB000FCF717FD4FF47A71002C01DA002402E0B2
:104CC0008C4200DD0C4607480268D463002D01DAEF
:104CD000002502E08D4200DD0D460068056470BDD0
:104CE00000080240B401002008B5FDF72FF8FFF7D7
:104CF000D5FBFFF7C1F8FFF7A9F8FFF77FFAFFF739
:104D0000C7F9FFF713FAFFF745FAFFF76DF9FFF759
:104D10004BF9FFF767F8FFF7A9FAFFF78DFA0821BB
:104D20009848FDF701FF0C219648FDF7FDFE002194
:104D30009548FDF7F9FE9448FDF7EEFB3C219348BA
:104D4000FDF73CFD3C219248FDF738FDFBF738FEAE
:104D50009FED903AB0EE432ADFED8F2AB0EE001AB5
:104D6000F0EE621ADFED8D3AF0EE630A9FED8C4AA9
:104D70008C48B0EE440AFFF74BFB8A48B0EE432A5A
:104D8000F0EE621AB0EE001AF0EE630AB0EE440ADA
:104D90002030FFF73DFBDFF80C8208F12009C8ED59
:104DA000052AC9ED052AFEF7D7FF5A2000F01EF9A3
:104DB00008237DA202210120FFF7EBFA08237DA240
:104DC00003210120FFF7E5FA08237EA20421282011
:104DD000FFF7DFFA7D4F7E4C4FF4004B4FF0100A87
:104DE0007820FCF76FFB7B4D5E4659462846FCF762
:104DF00073FC30B1A9153846FCF76EFC002857D07B
:104E000059E00020E061E169322091FBF0F20323D8
:104E100004210020CDF800A0FFF786FAE069032303
:104E20004100642091FBF0F200FB121206210020E9
:104E3000CDF800A0FFF778FA31462846FCF74CFC85
:104E40000028F9D0B34656467820FCF73BFB59467C
:104E50006048FCF741FCE8B34FF480713846FCF73A
:104E60003BFC10B9206A401C20624FF400713846A8
:104E7000FCF732FC10B9206A401E20620096226ABC
:104E8000022304215020FFF74FFAFFF743FE00EE04
:104E9000100A03230121B8EEC00A642084ED0A0A37
:104EA000BCEEC00A009610EE102AFFF73DFACBE7E1
:104EB000606A401C60624FF400713846FCF70CFCDD
:104EC00010B9606A401E6062CDF800A0626A0223D9
:104ED000032100E003E06420FFF726FA80E70125C4
:104EE000A561E169322091FBF0F203230421002047
:104EF0000096FFF719FAE06903234100642091FB53
:104F0000F0F200FB1212062100200096FFF70CFAC7
:104F100000F09AF85A3000EE100AB8EEC00AFDEE22
:104F2000C00A10EE900A00F061F810EE100A2A494B
:104F3000884214D10020A0610146FFF7A3FE254D51
:104F4000002210212846FCF7CCFB4FF4FA70FCF746
:104F5000B9FA012210212846FCF7C3FB40E7D4E947
:104F60000B01FFF7BBFD99ED050ABDEEC00A10EE7F
:104F7000101A98ED050ABDEEC00A10EE100AFFF7F0
:104F800081FEADE7B4010020FC01002044020020B6
:104F90008C02002000007A4400000000CDCCCC3D03
:104FA0009A99193E780000207461726765742056E2
:104FB0003A2000007461726765742074696D653A07
:104FC00000000000736C6F7065000000000C024070
:104FD00000000020000002400000B642024601200E
:104FE00000E05043491EC9B2FBD27047A12801DD41
:104FF000A12002E01F2800DC1F20C8214843B42163
:1050000090FBF1F0024932300968486370470000B4
:10501000FC01002010B5044600F013FA9FED071BB9
:1050200053EC112B00F024FA00F0DAF900EE100A2C
:10503000B4F5167F01DD9FED030A10BD3333333322
:1050400033333040000000002DE9F0412DED028B9C
:105050009FEDD58AFBF740FDD44807789FEDD40A31
:10506000DFF850C3D44ED54DD54CD64BD64AD74990
:10507000D748012F01D037B348E09CF800E0BEF1DB
:10508000010F43D196F800E0BEF1010F3ED195F833
:1050900000E0BEF1010F39D194F800E0BEF1010F3C
:1050A00034D193F800E0BEF1010F2FD192F800E067
:1050B000BEF1010F2AD191F800E0BEF1010F25D118
:1050C00090ED010A5BE19CF800E0BEF1010F1DD1FB
:1050D00096F800E0BEF1010F18D195F800E0BEF19E
:1050E000010F13D194F800E0BEF1010F0ED193F837
:1050F00000E0BEF1010F09D192F800E0BEF1010F0E
:1051000004D191F800E0BEF1010F7AD09CF800E0E4
:1051100057EA0E0C1DD196F800C0BCF1010F18D152
:1051200095F800C0BCF1010F13D194F800C0BCF198
:10513000010F0ED193F800C0BCF1010F09D192F814
:1051400000C0BCF1010F04D191F800C0BCF1010F07
:1051500057D0012F05D1BEF1000F03D0BEF1010FD2
:1051600027D0FBE096F800C09FED9A0ABCF1010F32
:105170000AD0BCF1000F07D0F0E000BF91F800C0EA
:10518000BCF1010F3DD0E9E095F800C0BCF1010F82
:105190000ED194F800C0BCF1010F09D193F800C002
:1051A000BCF1010F04D192F800C0BCF1010FE5D0B1
:1051B000D4E096F800C0BCF1000F03D0BCF1010FA1
:1051C00037D0CBE095F800C0BCF1010F03D0BCF1A3
:1051D000000F17D0C2E094F800C0BCF1010F30D12D
:1051E00093F800C0BCF1010F2BD192F800C0BCF1C4
:1051F000010F26D191F800C0BCF1010F21D1BBEE07
:10520000040ABCE094F800C0BCF1010F19D193F876
:1052100000C0BCF1010F14D192F800C0BCF1010F25
:105220000FD191F800C0BCF1010F0AD1BAEE0E0AFD
:10523000A5E095F800C0BCF1000F03D0BCF1010F50
:1052400017D08BE094F800C0BCF1010F21D193F886
:1052500000C0BCF1010F1CD192F800C0BCF1010FDD
:105260007CD191F800C0BCF1010F77D1BAEE000AF1
:1052700085E094F800C0BCF1000F0BD09FED560AFA
:10528000BCF1010F1ED0BCF1000F08D0BCF1010F22
:105290001DD063E093F800C0BCF1010F05D093F876
:1052A00000C0BCF1000F34D058E092F800C0BCF14F
:1052B000010F53D191F800C0BCF1010F4ED1B2EEF5
:1052C000000A5CE093F800C0BCF1000F0DD093F829
:1052D00000C0DFED420ABCF1010F27D0BCF1000F86
:1052E00008D0BCF1010F26D038E092F800C0BCF124
:1052F000010F06D092F800C0BCF1000F3FF43EAFA2
:105300002CE091F800C0BCF1010F27D1B3EE040AE4
:1053100035E092F800C0BCF1010F1FD191F800C038
:10532000BCF1010F1AD1B2EE0E0A28E092F800C0CB
:10533000BCF1000F08D092F800C0BCF1010F08D0FA
:10534000BCF1000F05D009E091F800C0BCF1010FDD
:1053500015D091F800C0BCF1000F13D03678774417
:105360002D783E44247835441B782C44127823440D
:1053700009781A441144052907D8B7EE000A80EDD0
:10538000000A04E0C0ED000A01E080ED008A90ED23
:10539000000A80ED010ABDEEC00ABDEC028B10EEE2
:1053A000100ABDE8F0810000000000003800002075
:1053B000000070C2390000203A0000203B000020AD
:1053C0003C0000203D0000203E0000203F00002067
:1053D00050000020000020C2000020420000704267
:1053E00021F00042A2F16052B2F5801F01F00043AB
:1053F00028BFD2F17F6C0BD95FEA001C43EAC202DE
:1054000042EB507018BF704728BF20F00100704772
:10541000B2F5801FBCBF184670474FEA410C1CF51F
:10542000001F02D2084600F026B970B500F0CAF895
:1054300000000089FFF7F6BF4FF00040A0F58000A4
:10544000704710F0004248BF4042B0FA80F310FAB3
:1054500003F10AD0C3F11D0303F580634FEA415005
:1054600002EB035202EBD12170474FF0000070476E
:10547000DFF848C170B51CEA111E1EBF1CEA1315E7
:105480009EEA0C0F95EA0C0F00F06F8081EA03048E
:1054900023EA4C134EEAD47E21EA4C1141F48011E8
:1054A00043F48013AE44A1FB024CA0FB0365AEF1B4
:1054B0007F7E361955EB0C05A1FB034C4CF1000324
:1054C000A0FB021C16EB0C06654153F100030942D8
:1054D00018BF46F0010613F4007F0BD14FEA0331E9
:1054E0004FEA0530340341EA155140EA16506FF097
:1054F00003020AE04FEAC3214FEAC520F40241EA61
:10550000555140EA56506FF0020202EB2E4201EB79
:10551000025585EACE710AD05FEA440C18BF24F028
:10552000004450F1000041F1000120EAD47040F243
:10553000FE7C624500D270BDA84214BF4FF080448B
:105540004FF04044002E08BF0024BEF1806FA8BF7A
:10555000A1F1C041BDE8704080F282804FF00000B0
:1055600001F1C04101F0004170479EEA0C0F0CEAC6
:10557000131518BF95EA0C0F06D04FF0000081EA12
:10558000030E0EF0004170BD00F01CF88900013ED2
:1055900000F007B800F009B84FEA430C5FEA5C5C22
:1055A00008D081EA030100F05BB84FEA410C5FEAE2
:1055B0005C5CF6D14FF00000014970470000FF0726
:1055C0000000F87F0EF1020E2EF0030E5EF8046B61
:1055D000364205D4012A43EB030515F5001F12D806
:1055E000012841EB010C1CF5001F0CD80ED14FEA2D
:1055F000D17C15F5001F0CEB4C0C0CF1020C08BF14
:105600004CEBD37C04E04FF0080C01E04FEAD37C74
:105610000CEB4C0526FA05F606F00706B6F1040C6D
:1056200006D20EEB860CBDE870404CF0010C6047D2
:10563000DFE80CF0090B02024FF000414FF00000D0
:10564000A1F5002170BD19461046012851EB010457
:1056500018BFD4F5001484BF002001F0004170BDD4
:105660000808A0F500114FEA310170474FF0407073
:10567000E1EE100A7047FF2141EAD050C0057047A3
:105680004500000040000000390000003400000028
:10569000300000002D0000002A000000270000005C
:1056A000250000002300000022000000460000004A
:1056B000400000003A00000035000000310000000A
:1056C0002E0000002B000000280000002600000033
:1056D00024000000230000004600000040000000FD
:1056E0003A00000035000000310000002E000000EC
:1056F0002B0000002800000026000000240000000D
:105700002300000047000000410000003B000000B3
:1057100036000000320000002F0000002C000000C6
:1057200029000000270000002500000023000000E1
:1057300047000000410000003B0000003600000070
:10574000320000002F0000002C00000029000000A3
:105750002700000025000000230000004A00000090
:10576000420000003C000000370000003300000051
:10577000300000002D0000002A000000280000007A
:1057800026000000240000004A0000004200000043
:105790003C00000037000000330000003000000033
:1057A0002D0000002A000000280000002600000054
:1057B000240000004A000000420000003C000000FD
:1057C0003700000033000000300000002D00000012
:1057D0002A0000002800000026000000240000002D
:1057E0004B000000430000003D00000038000000B6
:1057F00034000000300000002D0000002B000000ED
:105800002800000026000000240000004C000000DA
:10581000440000003E000000390000003400000099
:10582000310000002E0000002B00000029000000C5
:1058300027000000250000004D000000440000008B
:105840003F0000003900000035000000310000007A
:105850002E0000002C00000029000000270000009E
:10586000250000004D000000440000003F00000043
:105870003900000035000000310000002E0000005B
:105880002C00000029000000270000002500000077
:105890004C000000440000003F0000003900000000
:1058A00035000000310000002E0000002C00000038
:1058B0002900000027000000250000004B00000028
:1058C000440000003F0000003900000035000000E7
:1058D000320000002E0000002C0000002900000013
:1058E00027000000250000004A00000045000000DD
:1058F000400000003A0000003600000033000000C5
:105900002F0000002D0000002900000027000000EB
:105910002500000049000000450000004000000094
:105920003A00000036000000340000002F000000A4
:105930002D000000290000002700000025000000C5
:105940004800000045000000400000003A00000050
:1059500036000000340000002F0000002D00000081
:10596000290000002700000025000000480000007A
:1059700045000000400000003A0000003600000032
:10598000340000002F0000002D000000290000005E
:10599000270000002500000049000000450000002D
:1059A000400000003B000000370000003400000011
:1059B000300000002D0000002A0000002700000039
:1059C00025000000490000004600000041000000E2
:1059D0003C000000370000003400000031000000EF
:1059E0002E0000002A000000280000002600000011
:1059F0004A00000046000000410000003D00000099
:105A00003800000034000000320000002E000000CA
:105A10002B00000028000000260000004A000000C3
:105A200046000000410000003D000000380000007A
:105A300034000000320000002E0000002B000000A7
:105A400028000000260000004B0000004600000077
:105A5000410000003D00000038000000340000005C
:105A6000320000002E0000002B0000002800000083
:105A7000260000004C00000047000000420000002B
:105A80003D00000039000000350000003200000039
:105A90002F0000002C00000029000000270000005B
:105AA0004E00000047000000430000003D000000E1
:105AB0003900000035000000330000002F00000016
:105AC0002C00000029000000270000004F0000000B
:105AD00048000000440000003E0000003A000000C2
