:020000040800F2
:100000005808002029020008A3270008EB1A00085E
:10001000A12700081F040008AF2B00080000000003
:100020000000000000000000000000000728000899
:100030002104000800000000052800080928000825
:10004000430200084302000843020008430200087C
:10005000430200084302000843020008430200086C
:10006000430200084302000843020008430200085C
:10007000430200084302000843020008430200084C
:10008000430200084302000843020008430200083C
:10009000430200084302000843020008430200082C
:1000A000430200084302000843020008430200081C
:1000B000B1280008BD280008C9280008430200082C
:1000C00043020008F91A0008ED1A0008430200086C
:1000D00043020008430200084302000843020008EC
:1000E00043020008430200084302000843020008DC
:1000F00043020008430200084302000843020008CC
:1001000043020008430200084302000843020008BB
:1001100043020008430200084302000843020008AB
:10012000430200084302000843020008430200089B
:10013000430200084302000843020008430200088B
:10014000430200084302000843020008430200087B
:10015000430200084302000843020008430200086B
:10016000430200084302000843020008430200085B
:100170004302000843020008430200080000000098
:10018000430200084302000800F002F800F03CF8C7
:100190000AA090E8000C82448344AAF10107DA45E2
:1001A00001D100F031F8AFF2090EBAE80F0013F0F8
:1001B000010F18BFFB1A43F001031847F82D000088
:1001C000182E0000103A24BF78C878C1FAD8520718
:1001D00024BF30C830C144BF04680C6070470000C1
:1001E0000023002400250026103A28BF78C1FBD840
:1001F000520728BF30C148BF0B6070471FB502F0DF
:10020000C3FE1FBD10B510BD00F0CFF81146FFF7BB
:10021000F5FF02F013FD00F0EDF803B4FFF7F2FF75
:1002200003BC00F0F5F80000094880470948004782
:10023000FEE7FEE7FEE7FEE7FEE7FEE7FEE7FEE796
:10024000FEE7FEE704480549054A064B70470000F3
:10025000A128000889010008580200205808002041
:10026000580400205804002053EA020C00F0698072
:100270002DE9F04B4FF00006002B1FBFB3FA83F5BA
:1002800003FA05F424FA05F65E4012BF1643B2FAEB
:1002900082F502FA05F4C5F120051EBF22FA05FC1D
:1002A00044EA0C04203556EA044C4FEA144418BFC3
:1002B000641C4FF000084FF00009904271EB030CF2
:1002C00039D3002919BFB1FA81F701FA07F6B0FA5C
:1002D00080F700FA07F6C7F120071EBF20FA07FCD7
:1002E00046EA0C062037B6FBF4FCA7EB0507103FE7
:1002F00007F01F0BCBF120060CFA0BFB2CFA06F6CD
:1003000044BFB3460026202FA4BF5E464FF0000B2B
:100310005BEA060C08BF4FF0010B19EB0B09ABFBB6
:10032000027C48EB0608C01B06FB02CC0BFB03CC8F
:1003300071EB0C01C1E70B46024641464846BDE859
:10034000F08B13B54FF000004FF00001AFF30080C9
:10035000BDE81C4070474FF0000200B513469446BC
:100360009646203922BFA0E80C50A0E80C50B1F10D
:100370002001BFF4F7AF090728BFA0E80C5048BF21
:100380000CC05DF804EB890028BF40F8042B08BFBF
:10039000704748BF20F8022B11F0804F18BF00F8BB
:1003A000012B7047704770477047754600F02CF876
:1003B000AE4605006946534620F00700854618B052
:1003C00020B5FFF73FFFBDE820404FF000064FF09B
:1003D00000074FF000084FF0000B21F00701AC467A
:1003E000ACE8C009ACE8C009ACE8C009ACE8C00999
:1003F0008D46704710B50446AFF300802046BDE837
:100400001040FFF70ABF000000487047F4010020C9
:1004100001491820ABBEFEE7260002007047FEE748
:10042000704772B6FEE790F83510022903D080219C
:10043000416501207047052180F83510006801688A
:1004400021F0010101600020704790F835007047ED
:1004500070B5044600F00CF90546601C02D0044853
:100460000078044400F004F9401BA042FAD370BDA8
:10047000300000202DE9F84FDFF8BCA10022012553
:1004800003264FF00F090AF1040BAAF1040E00BF76
:100490000B6805FA02F42340A34270D10F7907F0EC
:1004A0000307012F01D0022F16D187684FEA4208B7
:1004B00006FA08FC27EA0C07D1F80CC00CFA08FC75
:1004C0004CEA070CC0F808C04768A7430C79C4F38E
:1004D000001494403C4344600C79E443A4070AD0E0
:1004E000C4684FEA420C06FA0CF7BC438F6807FA5F
:1004F0000CF72743C7600C7904F00304022C12D1D7
:10050000D40800EB840CDCF820405707FF0E09FAF2
:1005100007F824EA0804D1F8108008FA07F848EA36
:100520000408CCF8208004684FEA420C06FA0CF765
:10053000BC430F7907F0030707FA0CF7274307605E
:100540004C6814F4403F70D03C4C276847F4804717
:100550002760246822F0030704F480440094384C98
:1005600007EB040CDCF8084897074FEA177809FAFC
:1005700008F7BC43334FB84202D1002724E054E0CF
:10058000314FB84201D101271EE0304FB84201D1AE
:10059000022719E02E4FB84201D1032714E02D4F56
:1005A000B84201D104270FE02B4FB84201D10527F3
:1005B0000AE02A4FB84201D1062705E0284FB84289
:1005C00001D1072700E0082707FA08F72743CCF8EE
:1005D0000878DAF800405746D1F804C09C435FEA37
:1005E000CC2C00D51C433C60DBF800405F46D1F8C2
:1005F00004C09C435FEA8C2C00D51C433C60DEF8B1
:1006000000407746D1F804C09C435FEA8C3C00D59B
:100610001C433C60084F083F3C68D1F804C09C4331
:100620005FEACC3C00D51C433C60521C102AFFF40E
:100630002FAFBDE8F88F0000083C0140443802406D
:100640000030014000000240000402400008024067
:10065000000C02400010024000140240001802404A
:10066000001C02400AB1816170470904FBE70000E9
:1006700001488068704700003000002070477047D4
:100680002DE9F041016804464A694E6890F83E0041
:100690000025D743FA0506D4F243D20503D46FF4FC
:1006A000807201254A61B90508D4F143C90505D412
:1006B00022686FF4007145F002055161790525D477
:1006C000F143C90522D4638D94F83D10226B202894
:1006D00008D13BB9212910D029290ED0282901D1D0
:1006E000212A0AD022686FF48061516145F0040527
:1006F000102806D0402804D008E0204601F0E4FD90
:1007000004E02068016841F400710160380508D4F4
:10071000F043C00505D421686FF4006045F008057A
:100720004861002D07D0206C284320642046BDE896
:10073000F04101F04DBABDE8F0812DE9F0470268C3
:1007400000215368C66A90F83E4090F83D50102C46
:1007500012D0402C10D0046C002C7DD05469E4439E
:10076000A6077AD4DE43B60577D4036C03B191694A
:10077000BDE8F04701F084BD976951694FF42A0C38
:10078000C9435FEAC1784FF02A4904D066452AD0B0
:100790004E4528D010E0DE43B6050DD4C16A614550
:1007A00001D1012103E0C16A494501D10821C1629B
:1007B000BDE8F04701F0CABC0E0716D4DE43B6050B
:1007C00013D4416CC9B21161416B09B1C96B29B92C
:1007D000816B002907D0C96B002904D000684168EB
:1007E00041F400614160BDE8F0878E0706D4DE4326
:1007F000B60503D4BDE8F04701F01CBCFE435268C7
:1008000076074FEA02521DD4002AECDB0A0608D410
:10081000DA43520505D4490705D5BDE8F04701F094
:10082000ADBB4907DFD4D9438905DCD4212D05D0E0
:10083000402CD8D1BDE8F04701F0CEBCBDE8F04770
:1008400001F05ABB002ACEDB4A060BD4DA4352052C
:1008500008D4490708D501E00DE00EE0BDE8F047F7
:1008600001F0D0BA4907BED4D9438905BBD4BDE84D
:10087000F04701F059BA916970E7E10606D4D9430F
:10088000890503D4BDE8F04701F066BD2821212D7C
:1008900027D0292D25D0650655D4DD436D0552D4CA
:1008A000640752D590F83D30448D002C9BD01269DE
:1008B000446A2270426A521C4262428D521E428534
:1008C000428D002A8FD12A2B8DD10268536823F4E0
:1008D000806353602222026380F83D1000F054F9D7
:1008E00081E7250623D4DD436D0520D4640720D598
:1008F00090F83D30448D002CF2D0446A2478146185
:10090000426A521C4262428D521E4285428D002A2A
:10091000E6D1292BE4D10268536823F48063536045
:100920002122026380F83D1000F02FF95BE7610798
:10093000D6D4D9438905D3D4418D0029D0D0416A7A
:10094000097811610AE06107CAD4D9438905C7D47F
:10095000418D0029C4D01169426A1170416A491C55
:100960004162418D491E41853DE7704770B50400E5
:1009700025D094F83D00002520B984F83C5020464D
:1009800000F0BEF8242084F83D002068016821F0C2
:10099000010101602068016841F4004101602068A4
:1009A000016821F40041016000F024FA4D4A6168B9
:1009B000914201D84C4900E04C49884201D20120C3
:1009C00070BD4B492368B0FBF1F15E6826F03F062D
:1009D0000E435E606368934206D94FF496735943A1
:1009E0004FF47A73B1FBF3F12368491C1E6A26F0B9
:1009F0003F06314319626168914210D84900401E98
:100A0000B0FBF1F2521CC2F30B02042A01D2042003
:100A100022E0B0FBF1F0401CC0F30B001CE0A26828
:100A2000F2B301EBC10303EB0116431EB3FBF6F374
:100A30005B1C43F480431B0549D092B301EBC10218
:100A400002EB0111401EB0FBF1F0401CC0F30B00A3
:100A500040F4804040F400402168CA694CF6FF73BE
:100A60009A431043C861D4E9071001432068026823
:100A700022F0C00211430160D4E903010143206860
:100A8000826848F2FF339A4311438160D4E905013B
:100A900008432168CA6822F0FF021043C86001E0E1
:100AA0000EE016E02068016841F001010160256454
:100AB000202084F83D00256384F83E50002070BD5E
:100AC00001EB4106431EB3FBF6F35B1CB3E70120C9
:100AD000C2E701EB4101401EB0FBF1F0401CC0F346
:100AE0000B00B7E7A086010080841E0000093D00CE
:100AF00040420F00704770477047704770470000D2
:100B000010B586B0044614216846FFF724FC1B4943
:100B1000206888422FD11A480021026842F0200242
:100B200002600068122200F0200005900320CDE949
:100B30000210CDE900020420049069461148FFF735
:100B400099FC0F481030016841F480010160006891
:100B5000002200F4800005901146212000F07EF86C
:100B6000212000F06DF800221146222000F076F8D6
:100B7000222000F065F806B010BD000000580040CB
:100B800030380240001402407047704702488168C4
:100B90000278114481607047300000200B4810B586
:100BA000016841F400710160016841F480610160F5
:100BB000016841F480710160032000F06FF80F209C
:100BC00000F006F800F024F8002010BD003C0240C0
:100BD00070B50D4D04464FF47A712878B1FBF0F0F2
:100BE0000A490968B1FBF0F000F0FCFA48B9102C92
:100BF00007D200222146501E00F030F800206C6021
:100C000070BD012070BD0000300000203C000020BD
:100C10000A4808B5016841F480410160006800F4A9
:100C2000804000900548001F016841F0805101603C
:100C3000006800F08050009008BD00004438024079
:100C4000002809DB00F01F020121914040098000CB
:100C500000F1E020C0F8001170470000F0B40E4B26
:100C60001B680C46C3F30223C3F10705042D00D90A
:100C70000425191D072901D2002300E0DB1E0126EF
:100C800006FA05F1491E214099409E40761E164005
:100C90003143F0BC01F08CBF0CED00E0064900F0E0
:100CA000070208684FF6FF03184040EA0220034A93
:100CB00010430860704700000CED00E00000FA05EA
:100CC0002DE9F0470E46050065D0DFF81481D8F80D
:100CD0000000F7B200F00700B04207D288F80070B9
:100CE000D8F8000000F00700B04254D128683D4C0D
:100CF000810712D5400703D5206840F4E0502060FA
:100D00002878000703D5206840F460402060206800
:100D1000A96820F0F000084320602878C0072DD093
:100D2000304968680839012812D0022813D00328F6
:100D300011D00968890700292DDA216821F0030103
:100D400001432160FFF794FC814641F2883A0EE0AE
:100D500009688903EFE709688901ECE7FFF788FC78
:100D6000A0EB0901514502D90320BDE8F0872068B6
:100D7000696800F00C00B0EB810FEFD1D8F80010DB
:100D8000404601F00701B14207D90770006800F042
:100D90000700B04201D00120E7E72878400705D5D9
:100DA0002068E96820F4E0500843206028780007B4
:100DB00006D52068296920F4604040EAC10020601F
:100DC00000F028F82168084AC1F30311515CC840BB
:100DD0000649086006480068FFF7FAFE0020C4E7ED
:100DE000003C0240083802409C2F00083C000020D4
:100DF000340000200448054900680968044AC1F32A
:100E00008221515CC84070473C00002008380240F5
:100E1000AC2F0008154810B5006810F00C021448FB
:100E200013D01449042A0FD0082A0ED10F4C241FC6
:100E30002268236802F03F025B0207D52068C0F3F6
:100E40008810A0FB010106E0084610BD2168C1F32F
:100E50008811A1FB00010023FFF706FA2168C1F306
:100E60000141491C4900B0FBF1F010BD08380240B7
:100E70000024F40040787D012DE9F84F04006ED085
:100E80002078DFF84C93C007A9F104054AD009F196
:100E900004000168C1F38101012908D00068C0F392
:100EA000810002280AD1D9F80000400206D528683E
:100EB000800337D560680028E1D033E06068B0F582
:100EC000803F10D0B0F5A02F286810D020F48030DB
:100ED0002860286820F4802028606068A8B1FFF7A7
:100EE000C7FB06460DE0286840F48030F4E740F484
:100EF00080202860F7E700BFFFF7BAFB801B64285B
:100F000073D828688003F7D50CE0FFF7B1FB0646DD
:100F100005E000BFFFF7ACFB801B6428F0D8286811
:100F20008003F7D42078DFF8AC8280074FF0000A06
:100F30003ED5A748001D016811F00C0F08D00068CD
:100F4000C0F3810002280BD1D9F80000400207D479
:100F50002868800716D5E068012800D112E033E147
:100F6000E068B8B10120C8F80000FFF781FB064631
:100F700005E000BFFFF77CFB801B0228C0D8286873
:100F80008007F7D52868216920F0F80040EAC10001
:100F900028600DE0C8F800A0FFF76AFB064604E0F1
:100FA000FFF766FB801B02281FD828688007F7D44C
:100FB0002078000722D5864F87486169703771B164
:100FC00001210160FFF754FB064604E0FFF750FBE8
:100FD000801B022809D838688007F7D50EE0C0F8D2
:100FE00000A0FFF745FB064605E082E0FFF740FB67
:100FF000801B02287DD838688007F7D42078400706
:1010000068D5DFF8CCB100270BF13C0BDBF8000012
:10101000C0000BD4DBF8001041F08051CBF8001079
:10102000DBF80000012700F0805000906B4E306824
:10103000C00510D4306840F480703060FFF718FBB2
:10104000009005E0FFF714FB0099401A022850D8E1
:101050003068C005F6D55E4EA0686C3601280FD00A
:101060000528306810D020F001003060306820F092
:1010700004003060A068B8B1FFF7FAFA00900FE002
:10108000306840F00100F4E740F004003060F7E71A
:10109000FFF7EEFA0099411A41F28830814266D892
:1010A00030688007F4D50EE0FFF7E2FA009007E021
:1010B000FFF7DEFA0099411A41F28830814256D892
:1010C00030688007F4D42FB1DBF8001021F0805194
:1010D000CBF80010A069C8B33D49091D0968C1F3E8
:1010E000810102294AD00228504607D0C8F8600082
:1010F00000E03CE0FFF7BCFA04463BE04746C8F896
:101100006000FFF7B5FA064605E000BFFFF7B0FA4A
:10111000801B02282BD828688001F7D4D4E9070166
:101120000843A16A2E4A490802EB0141626A41EA7A
:101130008211084394F82C1040EA0161C9F80010AC
:1011400001203866FFF794FA044606E03EE000BF4F
:10115000FFF78EFA001B022809D828688001F7D50E
:1011600034E000BFFFF784FA001B022802D90320F5
:10117000BDE8F88F28688001F4D427E00128F7D073
:10118000D9F80000E26900F4800191421CD1226A82
:1011900000F03F01914217D147F6C071626A0140E9
:1011A000B1EB821F10D1A26A4FF0FF3300F440313F
:1011B00003EB5202B1EB024F06D194F82C1000F071
:1011C0007060B0EB016F01D00120D1E70020CFE7C4
:1011D0000438024000004742800E47420070004041
:1011E0000000FFFF10B5401EB0F1807F01D3012049
:1011F00010BD4FF0E02460610F21601701F0D8FCB2
:101200000020A06107202061002010BD70477047BA
:1012100070B590F83C20012A32D0012480F83C407F
:10122000022280F83D2003685A689D6822F070060B
:101230000A6832435A60134B02689A4214D0B2F1E2
:10124000804F11D0104B9A420ED0104B9A420BD0C7
:101250000F4B9A4208D00F4B9A4205D00E4B9A4240
:1012600002D00E4B9A4204D1496825F080031943FD
:10127000916080F83D40002180F83C10084670BD28
:10128000022070BD00000140000400400008004042
:10129000000C0040000401400040014000180040E4
:1012A00010B5040003D094F83D0010B107E0012010
:1012B00010BD002084F83C00204600F01FF80220FA
:1012C00084F83D00211D206801F004FB012084F812
:1012D000460084F83E0084F83F0084F8400084F81B
:1012E000410084F8420084F8430084F8440084F804
:1012F000450084F83D00002010BD000008B5114AEB
:1013000001681148914211D1016841F00401016066
:101310000068002200F00400009011461E20FFF734
:101320009DFCBDE808401E20FFF78ABC074A914299
:1013300007D1016841F008010160006800F0080071
:10134000009008BD0008004040380240000C0040FA
:1013500090F83D10012901D001207047022180F84A
:101360003D100168CA6842F00102CA600068114974
:10137000884214D0B0F1804F11D00F4988420ED06E
:101380000E4988420BD00E49884208D00D49884248
:1013900005D00D49884202D00C49884204D18168A9
:1013A00001F00701062903D0016841F00101016045
:1013B0000020704700000140000400400008004089
:1013C000000C0040000401400040014000180040B3
:1013D00070B5044690F83C000025012817D001267E
:1013E00084F83C60022084F83D002068826822F086
:1013F000770222F47F4282600868502838D00DDCE2
:1014000020284FD005DC90B3102811D14AE00220EB
:1014100070BD302846D040280AD13BE060282FD04C
:1014200070280DD0B0F5805F03D0B0F5005F12D00A
:10143000012584F83D60002084F83C00284670BDFA
:10144000CB68D1E90121206801F0B9FA20688168F0
:1014500041F0770109E0CB68D1E90121206801F072
:10146000AEFA2068816841F480418160E1E719E0CB
:10147000CA684968206801F077FB5021206806E0BF
:10148000CA684968206801F080FB6021206801F08B
:10149000A0FACEE7CA684968206801F065FB4021E0
:1014A0002068F4E7226801461046F0E72DE9F04194
:1014B0000D46040003D094F83D0018B108E0012067
:1014C000BDE8F081002084F83C00204600F040F8A0
:1014D000022084F83D002068816844F207029143AD
:1014E0008160211D206801F0F5F9226890689169FA
:1014F000166A2B68AF69034340F20330814341EA27
:101500000721A868EF6908434FF6FC418843E96862
:1015100040EA0720014328692F6A000140EA0730AA
:10152000084369686D6926F0AA0646EA051529434D
:1015300093602268906154F8460B0162012004F820
:101540001F09E0752076E0762077A0750020B7E7C8
:1015500070B586B0044614216846FEF7FCFE294AA1
:10156000256800232749103A02242748B5F1804F07
:1015700026D0264EB54221D10D6845F002050D60FA
:10158000096801F002010591116841F00101116043
:10159000116801F001010591C0210091CDE90143DD
:1015A000CDE903346946FEF765FF002211461D2090
:1015B000FFF754FB5FF01D00FFF742FB06B070BD64
:1015C0000D6845F001050D60096801F00101059104
:1015D000116841F001011160116801F001010591EC
:1015E00003210091CDE901430121CDE90331694691
:1015F000FEF740FF002211461C20FFF72FFB1C20A6
:10160000DAE70000403802400000024000040040D9
:1016100070B590F83E60044690F83F5090F8423024
:1016200090F84320022021B104290ED0012E1BD1B5
:1016300014E0012E18D1012B16D184F83E0084F855
:10164000420001220021206820E0012D0CD1012A56
:101650000AD184F83F0084F8430014E0012D03D13F
:10166000012B01D1012A01D0012070BD84F83E0078
:1016700084F83F0084F8420084F8430001220021EE
:10168000206801F08FF901220421206801F08AF915
:101690002068016841F001010160002070BD7047C1
:1016A0002DE9F04104460068C66805694FF000075F
:1016B000A90713D5B10711D5F91E016101202077C3
:1016C000206880698007204602D0FFF7E8FF04E029
:1016D00000F0A8F8204600F03AF92777680716D5F9
:1016E000700714D521686FF004000861022020778C
:1016F0002068806910F4407F204602D0FFF7CFFFBA
:1017000004E000F08FF8204600F021F92777280741
:1017100015D5300713D521686FF008000861042043
:1017200020772068C0698007204602D0FFF7B7FF06
:1017300004E000F077F8204600F009F92777E80682
:1017400016D5F00614D521686FF010000861082046
:1017500020772068C06910F4407F204602D0FFF750
:101760009EFF04E000F05EF8204600F0F0F82777D6
:10177000E80708D0F00706D021686FF00100086183
:10178000204600F049F9280608D5300606D521681C
:101790006FF0800008612046FFF738FD680608D525
:1017A000700606D521686FF040000861204600F001
:1017B0009BF9A8060AD5B00608D521686FF020006D
:1017C00008612046BDE8F041FFF721BDBDE8F0818A
:1017D00010B586B0044614216846FEF7BCFD0E49DC
:1017E0002068884215D10D480021026842F00802A5
:1017F0000260006800F0080005904FF4405000902F
:101800000220CDE90101CDE9031069460448FEF745
:1018100031FE06B010BD0000000800403038024024
:10182000000C0240704770B5044690F83C0000265A
:101830000D4601280FD0012084F83C006AB1042A2B
:101840001DD0082A2FD00C2A3FD00126002084F872
:101850003C00304670BD022070BD206801F0C2F827
:101860002068816941F0080181612068816921F067
:1018700004018161206881692A69114311E02068AF
:1018800001F0E0F82068816941F40061816120681D
:10189000816921F480618161206881692A6941EA56
:1018A00002218161D2E7206801F002F92068C16954
:1018B00041F00801C1612068C16921F00401C161E2
:1018C0002068C1692A69114311E0206801F024F9F8
:1018D0002068C16941F40061C1612068C16921F4D7
:1018E0008061C1612068C1692A6941EA0221C16140
:1018F000ACE710B5040003D094F83D0010B107E048
:10190000012010BD002084F83C00204600F01EF8A5
:10191000022084F83D00211D206800F0DBFF01203B
:1019200084F8460084F83E0084F83F0084F84000C4
:1019300084F8410084F8420084F8430084F84400AD
:1019400084F8450084F83D00002010BD70477047C2
:1019500010B50446022249B104290ED0082913D03B
:1019600094F84100012816D0012010BD94F83E00E3
:101970000128F9D184F83E200FE094F83F000128B7
:10198000F2D184F83F2008E094F840000128EBD120
:1019900084F8402001E084F841200122206801F011
:1019A00001F816492068164A884201D0904203D1B6
:1019B000436C43F4004343642068884213D0B0F181
:1019C000804F10D00F4988420DD00F4988420AD06D
:1019D0000E49884207D0904205D00D49884202D076
:1019E0000C49884204D1816801F00701062903D01F
:1019F000016841F001010160002010BD00000140BC
:101A0000000401400004004000080040000C0040B9
:101A1000004001400018004070B52E49884258D15E
:101A20002D480068406A2D4C606060682168401A4B
:101A30002061606821684FF6FF75884204DA6068AB
:101A40002168401A2844206160682060206901F004
:101A50003BF9BDEEC00A84ED090AB8EEC00AD4ED28
:101A6000060A30EEC00A84ED0B0AE069012805D1B0
:101A7000206A401C20621A4800F094FE1948006851
:101A8000406AE060E068A168401A6061E068A168AF
:101A9000884204DAE068A168401A28446061E0687E
:101AA000A060606901F010F9BDEEC00A84ED0A0A79
:101AB000B8EEC00AD4ED060A30EEC00A84ED0B0A77
:101AC000E069012805D1BDE870400548203000F0EC
:101AD00069BE70BDAC0100201C0100200000002088
:101AE00040000020D40000207047FEE70148FEF7C8
:101AF000C7BD0000800000200148FEF71EBE0000A8
:101B00008000002038B5806B002190F83D202B4BE1
:101B100046F2A8141B68B3FBF4F3C3EBC30303EB57
:101B2000830300933BB15B1E009303681B689B0516
:101B300005D5009BF6E7036C43F020030364436B79
:101B400003B1D963836B03B1D96303681C6824F4C0
:101B500080641C604185436B03B11965836B03B1DD
:101B6000196503681C6824F001041C6090F83D406E
:101B70002023602C0BD0282434EA02020FD080F8F6
:101B80003D3080F83E1000BFFEF7EFFE38BD80F814
:101B90003D3080F83E100164FEF770FD38BD0268EC
:101BA000136843F0010313600268136843F4806311
:101BB0001360016380F83D40E6E700003C00002030
:101BC00000684169C943090601D4002101617047D9
:101BD00070B5044690F83D0094F83E10102901D0ED
:101BE000402906D1222804D121680A6822F4006223
:101BF0000A60282131EA00024FF000054FF020066C
:101C000026D021684968090505D4602803D084F8E6
:101C10003D6084F83E50256320684168090537D54A
:101C2000416821F400614160606B90F835203C49C7
:101C3000012A11D00165606BFEF7F5FB38B320680F
:101C4000016821F00101016084F83D60606B1CE0D7
:101C5000256384F83D10DFE7A06B0165A06BFEF7FC
:101C6000E2FBA0B120684169C943490605D4006977
:101C7000616A0870606A401C60622068016821F037
:101C80000101016084F83D60A06B016D884710E0A0
:101C900094F83D10602910D04169C943490605D424
:101CA0000069616A0870606A401C60622046FEF745
:101CB0005CFE206CC1071CD115E084F83D602564F2
:101CC0004169C943490605D40069616A0870606AC0
:101CD000401C60622068016821F00101016020461B
:101CE000FEF7CCFCE5E7810703D4410701D40007E8
:101CF00004D52068416821F4E061416094F83D001A
:101D0000216C49070BD5282809D10648E0622563D4
:101D100084F83D6084F83E502046FEF7EBFE70BD2F
:101D2000051B00080000FFFF10B5C26A438D016863
:101D3000042B06D0438D032B08D0438D022B1DD0DE
:101D400012E04A6822F480624A600CE04B6823F497
:101D500080634B60042A06D0022A04D001680A6816
:101D600022F480620A6001680969426A1170416A5E
:101D7000491C4162418D491E418510BD012A34D064
:101D8000102A32D0042A34D0022A32D00B6843F40D
:101D900000730B6001680969436A1970416A491C44
:101DA0004162438D5B1E438503681B690B70416A6A
:101DB000491C4162418D491E418501684B6823F4ED
:101DC00040734B60202180F83D1090F83E30002198
:101DD000402B80F83E1010D0082A02D0202A00D0D4
:101DE00012210163FEF787FE10BD0B6823F48063A8
:101DF000CFE70B6843F48063CBE70163FEF77DFE1A
:101E000010BD000038B590F83D10222910D1C36AEA
:101E1000418D03290DD901680969426A1170416A2F
:101E2000491C4162418D491E4185418D032906D0DF
:101E300038BDC26A022A02D0012906D029B1006841
:101E4000416821F48061416038BD2A4A46F2A814F5
:101E500000211268B2FBF4F202EB820200920268E7
:101E60002024009D6D1E009526D01568AD05F8D480
:101E7000156825F4806515600268556825F4E065ED
:101E8000556002681269456A2A70426A521C4262B1
:101E9000428D521E428580F83D4090F83E2080F8E9
:101EA0003E10402A21D0082B02D0202B00D0122136
:101EB0000163FEF720FE38BD036C43F0200303648A
:101EC000536823F4E063536002681269436A1A702E
:101ED000426A521C4262428D521E428580F83D4049
:101EE00080F83E10FEF741FD38BD0163FEF705FEA8
:101EF00038BD00003C00002010B5C26A90F83D10CB
:101F000021290BD1418D51B1416A026809781161D3
:101F1000416A491C4162418D491E418510BD202303
:101F20000021082A13D0202A11D012F5803F0ED0AC
:101F30000268546824F4E06454601122026380F85B
:101F40003E1080F83D3000BFFEF7D6FD10BD0268A0
:101F5000546824F4E06454600268146844F4007423
:101F60001460016380F83D3090F83E2080F83E1008
:101F7000402AE9D1FEF7C2FD10BD000010B590F86F
:101F80003D1090F83E30C26A048DB4B1212903D0CF
:101F9000402B11D122290FD1418DE1B390F83E1091
:101FA000402942D0416A026809781161416A491C9E
:101FB0004162418D491E418510BD2129E8D1202370
:101FC0000021082A13D0202A11D012F5803F0ED00C
:101FD0000268546824F4E06454601122026380F8BB
:101FE0003E1080F83D3000BFFEF786FD10BD026850
:101FF000546824F4E06454600268146844F4007483
:102000001460016380F83D3090F83E2080F83E1067
:10201000402AE9D100E002E0FEF770FD10BD006843
:10202000416821F48061416010BDBDE8104000F0BE
:10203000D3B8000078B590F83E50C26A036B90F8B0
:102040003D6000240168222E7AD1066D0EB9402D24
:1020500076D0056D1DB90569B5F5404F09D0458DA0
:1020600005B3468D384D012E0ED0438D022B3AD04C
:102070005DE04A698A6900920A6842F480720A60E7
:10208000016D491C016578BDAA4213D10A6822F48A
:1020900080620A6001684A68120503D50A6822F462
:1020A000806216E04A698A6900920A6842F4007206
:1020B0000A6039E0082A10D0202A0ED0122B0AD04C
:1020C000042A03D0022A01D0102AE7D10A6842F478
:1020D00080620A6024E0012AE0D00A6822F480626B
:1020E0000A600168DEE7042A21D0022A1FD0102AE4
:1020F0001DD00B6823F480630B6001680B6843F408
:1021000000630B6001684B681B0509D5AA4212D019
:10211000012A10D0082A0ED0102A0CD0202A0AD06A
:1021200001684A6989690091046578BD08E00B6817
:1021300043F48063E5E74A6842F480524A60EFE77F
:10214000486988690090F0E70000FFFF90F83E10B2
:10215000402910D00169B1F5804F19D0016DA9B3A4
:10216000016D012910D1416C5FF0F10201F4407161
:1021700042EAD11106E0016D0029416C05D0C9B2D7
:1021800041F0010100680161704701F0FE01F9E7CB
:1021900090F83D102129416C09D0C9B241F00101EC
:1021A00002681161416B29B1C96B49B902E001F0C4
:1021B000FE01F5E7816B0029E6D0C96B0029E3D069
:1021C0000068416841F4006141607047FFE7416C7D
:1021D000F02201F44071CBE710B590F83D10026D8C
:1021E0004AB1026D012A14D0026D022A16D0BDE850
:1021F0001040FFF7E5BCC16C0129816C02D0C1F32E
:10220000072108E00268C9B21161016D891C0165EE
:1022100010BD816CC9B20268116123E022291CD073
:10222000428D0AB1212920D0428D002AF0D12129E6
:10223000EED101684A6822F4E0624A6001680A68E7
:1022400042F400720A6000210163202280F83D20E0
:1022500080F83E10FEF752FC10BD01680A6842F497
:1022600080720A60016D491CD1E7416A02680978F1
:102270001161416A491C4162418D491E418510BD71
:1022800038B50C4690F83D2000212825954302687A
:102290000B4605D051699169009180F83C3038BDFA
:1022A000556825F480655560E243540700D5012147
:1022B000120601D5828900E0028B80F83C3092B290
:1022C000FEF7DDF938BD00002DE9F04190F83D3012
:1022D0000446C26A002120261E4F00686FF4806504
:1022E000082A01D0202A01D1282B04D0212B17D075
:1022F0004561BDE8F081E762426822F4E062426035
:10230000206845612068026822F4806202602163CF
:1023100084F83D6084F83E102046FEF7EBFBE8E7CA
:10232000E7622122226384F83D6084F83E10416810
:1023300021F4E0614160206845612068016821F472
:10234000806101602046FFF73BFC2046FEF71DFC44
:10235000CFE700000000FFFFF8B590F83D600446AD
:102360000068416821F4E06141602068002541690E
:102370000091016841F0010101602068016821F4C9
:102380008061016020684168090520D5474F222EF1
:1023900048D02A2E46D0616B096849686185618DF5
:1023A00019B1216C41F004012164416821F40061FC
:1023B0004160606BFEF749F8012808D0606B076543
:1023C000606BFEF730F810B1606B016D8847608D6F
:1023D00008B320684169C943490708D40069616AA4
:1023E0000870606A401C6062608D401E60852068D5
:1023F0004169C943490608D40069616A0870606A86
:10240000401C6062608D401E6085608D18B1206C3C
:1024100040F004002064206C00B32046BDE8F84082
:10242000FFF7D6BBA16B096849686185618D19B159
:10243000216C41F004012164416821F40061416094
:10244000A06BFEF702F80128C1D0A06B0765A06B56
:10245000FDF7E9FF0028BAD0A06BB6E72A2E06D117
:102460002563282084F83D002046FEF78DFB94F874
:102470003D10202028290DD0216B222901D0222EA9
:1024800007D1256384F83D0084F83E502046FEF7CE
:102490007BFBF8BD0649E162256384F83D0084F8C2
:1024A0003E502046FEF726FBF8BD0000051B000845
:1024B0000000FFFFF0B587B014216846FDF74BFF21
:1024C0002B480024016841F020010160016801F0FF
:1024D00020010591016841F080010160016801F06F
:1024E00080010591016841F001010160016801F07E
:1024F00001010591016841F002010160016801F0EC
:1025000002010591016841F0080101600068194E5F
:1025100000F008004FF4404505900022294630465F
:10252000FEF7A0F8144F002240F602413846FEF7AD
:1025300099F800950125CDE9015469463046039488
:10254000FDF798FF4FF440600090CDE901546946D3
:1025500038460394FDF78EFF0220CDE90005694659
:102560003846CDE90245FDF785FF07B0F0BD000014
:102570003038024000040240000C02400D4810B503
:102580000B4901600C49416000214FF48042816099
:10259000C0E9031241618161C1610162FEF7E6F9A0
:1025A000002803D0BDE81040FDF73BBF10BD000080
:1025B0000058004080000020801A060010B58CB042
:1025C00024216846FDF7C7FE0024154809944FF002
:1025D00080410A9401600121C0E901148A1EC0E90A
:1025E00003248461CDE900140F200291CDE903405A
:1025F000CDE905410794694609480894FEF756FF5E
:1026000008B1FDF70EFF099409A905480A94FEF7E1
:10261000FFFD002801D0FDF704FF0CB010BD000045
:10262000D400002010B58CB024216846FDF793FE3D
:1026300000241648099414490A9401600121C0E954
:1026400001144FF6FF72C0E903248461CDE9001440
:102650000F200291CDE90340CDE905410794694679
:102660000A480894FEF722FF08B1FDF7DAFE099444
:1026700009A906480A94FEF7CBFD002801D0FDF712
:10268000D0FE0CB010BD0000000400401C01002072
:1026900010B58EB000240794089409940A940B9402
:1026A0001C2168460C94FDF756FE23482149016021
:1026B000A721C0E9011441F28731C0E90314846104
:1026C000FEF7EEFD08B1FDF7ACFE4FF48050079029
:1026D00007A91948FEF77CFE08B1FDF7A2FE1648CF
:1026E000FFF707F908B1FDF79CFE0B940BA9124800
:1026F0000C94FEF78DFD08B1FDF793FE6020CDE947
:102700000004042004900022694602940A48FFF75E
:102710008AF808B1FDF785FE04226946064804944C
:10272000FFF781F808B1FDF77CFE0348FFF750F88A
:102730000EB010BD000800406401002010B586B046
:1027400000241648009401940294039404941249BE
:1027500005940160A721C0E90114611EC0E90314BA
:102760008461FEF79DFD08B1FDF75BFE4FF48050DC
:10277000009069460948FEF72BFE08B1FDF751FEAF
:10278000049404A905480594FEF742FD002801D0F1
:10279000FDF747FE06B010BD000C0040AC01002064
:1027A000FEE7FEE7D0ED030A70EE800AC0ED030AF3
:1027B000D0ED011A90ED041A61EEA00AD0ED001AD6
:1027C00030EE411A41EE800AD0ED021A41EE810A44
:1027D000C0ED050A90ED061AF4EEC10AF1EE10FA0A
:1027E00002DCB0EE601A01E080ED051AD0ED070AB8
:1027F000B4EEE01AF1EE10FA01D2C0ED050A80ED58
:10280000040A704770477047FEF7C0B930B593B0FF
:1028100030216846FDF79FFD14210CA8FDF79BFDB4
:102820001D480025016841F080510160006800F0FA
:10283000805011901948016841F48041016000689E
:10284000022400F480401190012003901020049095
:10285000009406940820CDE90750A820CDE909048A
:1028600004200B906846FEF707FB08B172B6FEE73E
:102870000CA90F2081E831004FF4A0500F904FF4C5
:102880008050109005210CA8FEF71AFA002801D0FC
:1028900072B6FEE713B030BD403802400070004011
:1028A0000248016841F470010160704788ED00E062
:1028B0000148FEF7F5BE0000D40000200148FEF7F5
:1028C000EFBE00001C0100200148FEF7E9BE000039
:1028D00064010020F0B50268274B284D284E294F8F
:1028E000294C4FF0804C984209D0604507D0A8424F
:1028F00005D0B04203D0B84201D0A04204D122F0AA
:10290000700E4A6842EA0E0298421BD0604519D008
:10291000A84217D0B04215D0B84213D0A04211D06F
:102920001A4DA8420ED01A4DA8420BD0194DA842FC
:1029300008D0194DA84205D0184DA84202D0184D14
:10294000A84203D122F44075CA682A434D6922F097
:1029500080022A438D68C5620D688562984201D065
:10296000A04201D109690163016841F004010160DD
:10297000012141610260F0BD0000014000040040FF
:1029800000080040000C00400004014000400140ED
:10299000004401400048014000180040001C004075
:1029A0000020004010B501F01F030121046A994086
:1029B0008C430462016A9A401143016210BD10B554
:1029C000846842EA032224F47F440A43224382605B
:1029D00010BD826822F070020A4342F00701816054
:1029E00070470000F0B5036A026A22F00102026239
:1029F00042688469124E24F073050C682C4323F05E
:102A000002058B682B430D4DA84201D0B04205D181
:102A100023F00807CB683B4323F00403A84201D00E
:102A2000B04205D14D6922F4407215438A692A43A8
:102A300042608461496841630362F0BD0000014067
:102A400000040140F0B5026A036A23F01003036238
:102A5000436884690D6824F4E64444EA05248D68DB
:102A600022F0200242EA05120F4D104EA84201D07A
:102A7000B04206D1CF6822F0800242EA071222F06B
:102A80004002A84201D0B04207D14D6923F440630F
:102A900043EA85038D6943EA85034360846149689D
:102AA00081630262F0BD00000000014000040140AB
:102AB000F0B5026A036A23F4807303624368C46951
:102AC00022F4007224F073050C68124E2C438D68BA
:102AD00042EA05220E4DA84201D0B04206D1CF688D
:102AE00022F4006242EA072222F48062A84201D066
:102AF000B04207D14D6923F4405343EA05138D6971
:102B000043EA05134360C4614968C1630262F0BDD2
:102B1000000001400004014030B5046A026A22F45A
:102B2000805202624268C3690D6823F4E64343EAB7
:102B300005238D6824F4005444EA0534084DA84266
:102B400002D0084DA84204D14D6922F4804242EAE5
:102B500085124260C36149680164046230BD0000AF
:102B6000000001400004014010B5036A046A24F02B
:102B700001040462846924F0F00444EA021423F09E
:102B80000A020A438461026210BD10B5036A046A36
:102B900024F010040462846923F0A00324F4704438
:102BA00044EA023243EA01118261016210BDFEE78C
:102BB0000907090E002804DB00F1E02080F800146A
:102BC000704700F00F0000F1E02080F8141D7047FE
:102BD00070B5174E0D4604460122D1023046FDF76E
:102BE00041FD002231153046FDF73CFD114E01221A
:102BF00091033046FDF736FD00224FF40041304688
:102C0000FDF730FD4FF47A71002C01DA002402E068
:102C10008C4200DD0C46084802685463002D01DA3E
:102C2000002502E08D4200DD0D460068856370BD21
:102C3000000C02400004024064010020FDF7AEFFDA
:102C4000FFF7E4FDFFF736FCFFF798FCFFF7B6FC53
:102C5000FFF7E8FCFFF71CFDFFF770FD1548FEF7D6
:102C600077FB00211348FEF773FE04211148FEF79D
:102C70006FFE3C211048FEF7CBFC3C210F48FEF7CD
:102C8000C7FC0F48FEF764FB0E4C4FF4FA75642145
:102C90000846FFF79DFF012202212046FDF7E2FCD6
:102CA0002846FDF7D5FB002202212046FDF7DAFC7D
:102CB000EDE7000064010020D40000201C0100208A
:102CC000AC010020000C024010B5044600F047F8AB
:102CD0009FED071B53EC112B00F058F800F00EF895
:102CE00000EE100AB4F5167F01DD9FED030A10BD5A
:102CF00033333333333330400000000021F00042DF
:102D0000A2F16052B2F5801F01F0004328BFD2F15A
:102D10007F6C0BD95FEA001C43EAC20242EB5070A1
:102D200018BF704728BF20F001007047B2F5801F20
:102D3000BCBF184670474FEA410C1CF5001F02D279
:102D4000084600F026B970B500F0CAF80000008906
:102D5000FFF7F6BF4FF00040A0F58000704710F07D
:102D6000004248BF4042B0FA80F310FA03F10AD0A3
:102D7000C3F11D0303F580634FEA415002EB035298
:102D800002EBD12170474FF000007047DFF848C1D7
:102D900070B51CEA111E1EBF1CEA13159EEA0C0F2B
:102DA00095EA0C0F00F06F8081EA030423EA4C13CC
:102DB0004EEAD47E21EA4C1141F4801143F4801391
:102DC000AE44A1FB024CA0FB0365AEF17F7E361939
:102DD00055EB0C05A1FB034C4CF10003A0FB021CBE
:102DE00016EB0C06654153F10003094218BF46F08B
:102DF000010613F4007F0BD14FEA03314FEA05308F
:102E0000340341EA155140EA16506FF003020AE01C
:102E10004FEAC3214FEAC520F40241EA555140EA86
:102E200056506FF0020202EB2E4201EB025585EA8A
:102E3000CE710AD05FEA440C18BF24F0004450F170
:102E4000000041F1000120EAD47040F2FE7C6245AE
:102E500000D270BDA84214BF4FF080444FF04044F0
:102E6000002E08BF0024BEF1806FA8BFA1F1C041B1
:102E7000BDE8704080F282804FF0000001F1C04157
:102E800001F0004170479EEA0C0F0CEA131518BFC1
:102E900095EA0C0F06D04FF0000081EA030E0EF009
:102EA000004170BD00F01CF88900013E00F007B839
:102EB00000F009B84FEA430C5FEA5C5C08D081EA95
:102EC000030100F05BB84FEA410C5FEA5C5CF6D1AD
:102ED0004FF00000014970470000FF070000F87F35
:102EE0000EF1020E2EF0030E5EF8046B364205D48E
:102EF000012A43EB030515F5001F12D8012841EB09
:102F0000010C1CF5001F0CD80ED14FEAD17C15F531
:102F1000001F0CEB4C0C0CF1020C08BF4CEBD37CEB
:102F200004E04FF0080C01E04FEAD37C0CEB4C05B9
:102F300026FA05F606F00706B6F1040C06D20EEBEB
:102F4000860CBDE870404CF0010C6047DFE80CF0E7
:102F5000090B02024FF000414FF00000A1F50021E3
:102F600070BD19461046012851EB010418BFD4F575
:102F7000001484BF002001F0004170BD0808A0F5D6
:102F800000114FEA310170474FF04070E1EE100A36
:102F90007047FF2141EAD050C00570470000000093
:102FA00000000000010203040607080900000000F9
:102FB00001020304D42F000800000020400000009C
:102FC000C401000814300008400000201808000068
:102FD000E001000800000000000000000000000008
:102FE00000000000000000000000000000008C4213
:102FF00000000000000000000000000000000000D1
:1030000000000000010000001000000000000000AF
:043010000024F400A4
:040000050800018965
:00000001FF
